{
  "contractName": "CapitalETH",
  "abi": [
    {
      "inputs": [],
      "stateMutability": "nonpayable",
      "type": "constructor"
    },
    {
      "anonymous": false,
      "inputs": [
        {
          "indexed": false,
          "internalType": "uint256",
          "name": "id",
          "type": "uint256"
        },
        {
          "indexed": true,
          "internalType": "address",
          "name": "srcAccount",
          "type": "address"
        }
      ],
      "name": "newSIPCreated",
      "type": "event"
    },
    {
      "anonymous": false,
      "inputs": [
        {
          "indexed": true,
          "internalType": "address",
          "name": "srcAccount",
          "type": "address"
        },
        {
          "indexed": false,
          "internalType": "contract ERC20",
          "name": "srcToken",
          "type": "address"
        },
        {
          "indexed": true,
          "internalType": "address",
          "name": "destAccount",
          "type": "address"
        },
        {
          "indexed": false,
          "internalType": "contract ERC20",
          "name": "destToken",
          "type": "address"
        },
        {
          "indexed": false,
          "internalType": "uint256",
          "name": "srcQty",
          "type": "uint256"
        }
      ],
      "name": "tokensSwapped",
      "type": "event"
    },
    {
      "anonymous": false,
      "inputs": [
        {
          "indexed": true,
          "internalType": "address",
          "name": "oldAddress",
          "type": "address"
        },
        {
          "indexed": true,
          "internalType": "address",
          "name": "newContractAddress",
          "type": "address"
        }
      ],
      "name": "updateKyberNetworkProxyContract",
      "type": "event"
    },
    {
      "stateMutability": "payable",
      "type": "fallback"
    },
    {
      "inputs": [],
      "name": "aaveAddressProvider",
      "outputs": [
        {
          "internalType": "contract ILendingPoolAddressesProvider",
          "name": "",
          "type": "address"
        }
      ],
      "stateMutability": "view",
      "type": "function"
    },
    {
      "inputs": [],
      "name": "aaveLendingPool",
      "outputs": [
        {
          "internalType": "contract ILendingPool",
          "name": "",
          "type": "address"
        }
      ],
      "stateMutability": "view",
      "type": "function"
    },
    {
      "inputs": [],
      "name": "aaveRef",
      "outputs": [
        {
          "internalType": "uint16",
          "name": "",
          "type": "uint16"
        }
      ],
      "stateMutability": "view",
      "type": "function"
    },
    {
      "inputs": [],
      "name": "getTrustedForwarder",
      "outputs": [
        {
          "internalType": "address",
          "name": "",
          "type": "address"
        }
      ],
      "stateMutability": "view",
      "type": "function"
    },
    {
      "inputs": [
        {
          "internalType": "uint256",
          "name": "",
          "type": "uint256"
        }
      ],
      "name": "idToAddress",
      "outputs": [
        {
          "internalType": "address",
          "name": "",
          "type": "address"
        }
      ],
      "stateMutability": "view",
      "type": "function"
    },
    {
      "inputs": [],
      "name": "kyberNetworkProxyContract",
      "outputs": [
        {
          "internalType": "contract KyberNetworkProxyInterface",
          "name": "",
          "type": "address"
        }
      ],
      "stateMutability": "view",
      "type": "function"
    },
    {
      "inputs": [],
      "name": "owner",
      "outputs": [
        {
          "internalType": "address payable",
          "name": "",
          "type": "address"
        }
      ],
      "stateMutability": "view",
      "type": "function"
    },
    {
      "inputs": [
        {
          "internalType": "uint256",
          "name": "",
          "type": "uint256"
        }
      ],
      "name": "plans",
      "outputs": [
        {
          "internalType": "uint256",
          "name": "id",
          "type": "uint256"
        },
        {
          "internalType": "address payable",
          "name": "srcAccount",
          "type": "address"
        },
        {
          "internalType": "address payable",
          "name": "destAccount",
          "type": "address"
        },
        {
          "internalType": "address",
          "name": "srcToken",
          "type": "address"
        },
        {
          "internalType": "address",
          "name": "destToken",
          "type": "address"
        },
        {
          "internalType": "uint256",
          "name": "period",
          "type": "uint256"
        },
        {
          "internalType": "enum CapitalETH.Status",
          "name": "status",
          "type": "uint8"
        },
        {
          "internalType": "uint256",
          "name": "amount",
          "type": "uint256"
        },
        {
          "internalType": "uint256",
          "name": "lastTx",
          "type": "uint256"
        }
      ],
      "stateMutability": "view",
      "type": "function"
    },
    {
      "inputs": [
        {
          "internalType": "address",
          "name": "",
          "type": "address"
        }
      ],
      "name": "processors",
      "outputs": [
        {
          "internalType": "bool",
          "name": "",
          "type": "bool"
        }
      ],
      "stateMutability": "view",
      "type": "function"
    },
    {
      "inputs": [
        {
          "internalType": "address",
          "name": "",
          "type": "address"
        }
      ],
      "name": "userSIPCount",
      "outputs": [
        {
          "internalType": "uint256",
          "name": "",
          "type": "uint256"
        }
      ],
      "stateMutability": "view",
      "type": "function"
    },
    {
      "stateMutability": "payable",
      "type": "receive"
    },
    {
      "inputs": [
        {
          "internalType": "address payable",
          "name": "srcAccount",
          "type": "address"
        },
        {
          "internalType": "address payable",
          "name": "destAccount",
          "type": "address"
        },
        {
          "internalType": "address",
          "name": "srcToken",
          "type": "address"
        },
        {
          "internalType": "address",
          "name": "destToken",
          "type": "address"
        },
        {
          "internalType": "uint256",
          "name": "period",
          "type": "uint256"
        },
        {
          "internalType": "uint256",
          "name": "amount",
          "type": "uint256"
        }
      ],
      "name": "createSIP",
      "outputs": [
        {
          "internalType": "uint256",
          "name": "",
          "type": "uint256"
        }
      ],
      "stateMutability": "nonpayable",
      "type": "function"
    },
    {
      "inputs": [
        {
          "internalType": "uint256",
          "name": "sipID",
          "type": "uint256"
        }
      ],
      "name": "processSingleSIP",
      "outputs": [],
      "stateMutability": "nonpayable",
      "type": "function"
    },
    {
      "inputs": [
        {
          "internalType": "uint256",
          "name": "id",
          "type": "uint256"
        }
      ],
      "name": "pauseSIP",
      "outputs": [
        {
          "internalType": "bool",
          "name": "",
          "type": "bool"
        }
      ],
      "stateMutability": "nonpayable",
      "type": "function"
    },
    {
      "inputs": [
        {
          "internalType": "address",
          "name": "srcAddress",
          "type": "address"
        }
      ],
      "name": "getPlansByAddress",
      "outputs": [
        {
          "internalType": "uint256[]",
          "name": "",
          "type": "uint256[]"
        }
      ],
      "stateMutability": "view",
      "type": "function"
    },
    {
      "inputs": [
        {
          "internalType": "address",
          "name": "newContractAddress",
          "type": "address"
        }
      ],
      "name": "setKyberNetworkProxyContract",
      "outputs": [
        {
          "internalType": "bool",
          "name": "",
          "type": "bool"
        }
      ],
      "stateMutability": "nonpayable",
      "type": "function"
    },
    {
      "inputs": [
        {
          "internalType": "address",
          "name": "srcAccount",
          "type": "address"
        },
        {
          "internalType": "contract ERC20",
          "name": "srcToken",
          "type": "address"
        },
        {
          "internalType": "address",
          "name": "destAccount",
          "type": "address"
        },
        {
          "internalType": "contract ERC20",
          "name": "destToken",
          "type": "address"
        },
        {
          "internalType": "uint256",
          "name": "srcQty",
          "type": "uint256"
        },
        {
          "internalType": "uint256",
          "name": "maxDestAmount",
          "type": "uint256"
        }
      ],
      "name": "swapTokensUsingKyber",
      "outputs": [],
      "stateMutability": "nonpayable",
      "type": "function"
    },
    {
      "inputs": [
        {
          "internalType": "address",
          "name": "lendingPoolAddressProvider",
          "type": "address"
        }
      ],
      "name": "setAaveAddress",
      "outputs": [
        {
          "internalType": "bool",
          "name": "",
          "type": "bool"
        }
      ],
      "stateMutability": "nonpayable",
      "type": "function"
    },
    {
      "inputs": [
        {
          "internalType": "address",
          "name": "srcToken",
          "type": "address"
        },
        {
          "internalType": "uint256",
          "name": "amount",
          "type": "uint256"
        },
        {
          "internalType": "uint16",
          "name": "ref",
          "type": "uint16"
        }
      ],
      "name": "getInterestBearingATokens",
      "outputs": [
        {
          "internalType": "bool",
          "name": "",
          "type": "bool"
        }
      ],
      "stateMutability": "nonpayable",
      "type": "function"
    },
    {
      "inputs": [
        {
          "internalType": "address",
          "name": "aTokenAddress",
          "type": "address"
        },
        {
          "internalType": "uint256",
          "name": "amount",
          "type": "uint256"
        }
      ],
      "name": "getUnderlyingToken",
      "outputs": [
        {
          "internalType": "bool",
          "name": "",
          "type": "bool"
        }
      ],
      "stateMutability": "nonpayable",
      "type": "function"
    },
    {
      "inputs": [
        {
          "internalType": "address",
          "name": "forwarder",
          "type": "address"
        }
      ],
      "name": "setTrustedForwarder",
      "outputs": [],
      "stateMutability": "nonpayable",
      "type": "function"
    }
  ],
  "bytecode": "0x608060405234801561001057600080fd5b5033600160006101000a81548173ffffffffffffffffffffffffffffffffffffffff021916908373ffffffffffffffffffffffffffffffffffffffff160217905550600160026000600160009054906101000a900473ffffffffffffffffffffffffffffffffffffffff1673ffffffffffffffffffffffffffffffffffffffff1673ffffffffffffffffffffffffffffffffffffffff16815260200190815260200160002060006101000a81548160ff021916908315150217905550612c2e806100db6000396000f3fe6080604052600436106101235760003560e01c8063b1035aa4116100a0578063da74222811610064578063da742228146108b2578063db6b377e14610903578063e17549ed14610984578063e9d337b8146109f7578063eb0097be14610a4e5761012a565b8063b1035aa4146105b0578063b162061614610619578063bc9889a91461075e578063cdaabe4114610804578063ce1b815f1461085b5761012a565b806365639132116100e757806365639132146103a1578063785250da146103d45780638308452b1461042b5780638da5cb5b146104f0578063965e064a146105475761012a565b8063247194141461012c5780632a2d0c47146102055780633ac13589146102805780633f19d6f0146102e5578063401a7da21461034e5761012a565b3661012a57005b005b34801561013857600080fd5b506101ef600480360360c081101561014f57600080fd5b81019080803573ffffffffffffffffffffffffffffffffffffffff169060200190929190803573ffffffffffffffffffffffffffffffffffffffff169060200190929190803573ffffffffffffffffffffffffffffffffffffffff169060200190929190803573ffffffffffffffffffffffffffffffffffffffff1690602001909291908035906020019092919080359060200190929190505050610a89565b6040518082815260200191505060405180910390f35b34801561021157600080fd5b5061023e6004803603602081101561022857600080fd5b8101908080359060200190929190505050610dea565b604051808273ffffffffffffffffffffffffffffffffffffffff1673ffffffffffffffffffffffffffffffffffffffff16815260200191505060405180910390f35b34801561028c57600080fd5b506102cf600480360360208110156102a357600080fd5b81019080803573ffffffffffffffffffffffffffffffffffffffff169060200190929190505050610e1d565b6040518082815260200191505060405180910390f35b3480156102f157600080fd5b506103346004803603602081101561030857600080fd5b81019080803573ffffffffffffffffffffffffffffffffffffffff169060200190929190505050610e35565b604051808215151515815260200191505060405180910390f35b34801561035a57600080fd5b506103876004803603602081101561037157600080fd5b8101908080359060200190929190505050610fa5565b604051808215151515815260200191505060405180910390f35b3480156103ad57600080fd5b506103b6611165565b604051808261ffff1661ffff16815260200191505060405180910390f35b3480156103e057600080fd5b506103e9611179565b604051808273ffffffffffffffffffffffffffffffffffffffff1673ffffffffffffffffffffffffffffffffffffffff16815260200191505060405180910390f35b34801561043757600080fd5b506104ee600480360360c081101561044e57600080fd5b81019080803573ffffffffffffffffffffffffffffffffffffffff169060200190929190803573ffffffffffffffffffffffffffffffffffffffff169060200190929190803573ffffffffffffffffffffffffffffffffffffffff169060200190929190803573ffffffffffffffffffffffffffffffffffffffff169060200190929190803590602001909291908035906020019092919050505061119f565b005b3480156104fc57600080fd5b50610505611946565b604051808273ffffffffffffffffffffffffffffffffffffffff1673ffffffffffffffffffffffffffffffffffffffff16815260200191505060405180910390f35b34801561055357600080fd5b506105966004803603602081101561056a57600080fd5b81019080803573ffffffffffffffffffffffffffffffffffffffff16906020019092919050505061196c565b604051808215151515815260200191505060405180910390f35b3480156105bc57600080fd5b506105ff600480360360208110156105d357600080fd5b81019080803573ffffffffffffffffffffffffffffffffffffffff16906020019092919050505061198c565b604051808215151515815260200191505060405180910390f35b34801561062557600080fd5b506106526004803603602081101561063c57600080fd5b8101908080359060200190929190505050611ab7565b604051808a81526020018973ffffffffffffffffffffffffffffffffffffffff1673ffffffffffffffffffffffffffffffffffffffff1681526020018873ffffffffffffffffffffffffffffffffffffffff1673ffffffffffffffffffffffffffffffffffffffff1681526020018773ffffffffffffffffffffffffffffffffffffffff1673ffffffffffffffffffffffffffffffffffffffff1681526020018673ffffffffffffffffffffffffffffffffffffffff1673ffffffffffffffffffffffffffffffffffffffff16815260200185815260200184600181111561073657fe5b60ff168152602001838152602001828152602001995050505050505050505060405180910390f35b34801561076a57600080fd5b506107ad6004803603602081101561078157600080fd5b81019080803573ffffffffffffffffffffffffffffffffffffffff169060200190929190505050611b9f565b6040518080602001828103825283818151815260200191508051906020019060200280838360005b838110156107f05780820151818401526020810190506107d5565b505050509050019250505060405180910390f35b34801561081057600080fd5b50610819611ce3565b604051808273ffffffffffffffffffffffffffffffffffffffff1673ffffffffffffffffffffffffffffffffffffffff16815260200191505060405180910390f35b34801561086757600080fd5b50610870611d09565b604051808273ffffffffffffffffffffffffffffffffffffffff1673ffffffffffffffffffffffffffffffffffffffff16815260200191505060405180910390f35b3480156108be57600080fd5b50610901600480360360208110156108d557600080fd5b81019080803573ffffffffffffffffffffffffffffffffffffffff169060200190929190505050611d32565b005b34801561090f57600080fd5b5061096a6004803603606081101561092657600080fd5b81019080803573ffffffffffffffffffffffffffffffffffffffff16906020019092919080359060200190929190803561ffff169060200190929190505050611d75565b604051808215151515815260200191505060405180910390f35b34801561099057600080fd5b506109dd600480360360408110156109a757600080fd5b81019080803573ffffffffffffffffffffffffffffffffffffffff169060200190929190803590602001909291905050506124fb565b604051808215151515815260200191505060405180910390f35b348015610a0357600080fd5b50610a0c6128a5565b604051808273ffffffffffffffffffffffffffffffffffffffff1673ffffffffffffffffffffffffffffffffffffffff16815260200191505060405180910390f35b348015610a5a57600080fd5b50610a8760048036036020811015610a7157600080fd5b81019080803590602001909291905050506128cb565b005b6000806005600081548092919060010191905055905060066040518061012001604052808381526020018a73ffffffffffffffffffffffffffffffffffffffff1681526020018973ffffffffffffffffffffffffffffffffffffffff1681526020018873ffffffffffffffffffffffffffffffffffffffff1681526020018773ffffffffffffffffffffffffffffffffffffffff16815260200186815260200160006001811115610b3657fe5b81526020018581526020014281525090806001815401808255809150506001900390600052602060002090600902016000909190919091506000820151816000015560208201518160010160006101000a81548173ffffffffffffffffffffffffffffffffffffffff021916908373ffffffffffffffffffffffffffffffffffffffff16021790555060408201518160020160006101000a81548173ffffffffffffffffffffffffffffffffffffffff021916908373ffffffffffffffffffffffffffffffffffffffff16021790555060608201518160030160006101000a81548173ffffffffffffffffffffffffffffffffffffffff021916908373ffffffffffffffffffffffffffffffffffffffff16021790555060808201518160040160006101000a81548173ffffffffffffffffffffffffffffffffffffffff021916908373ffffffffffffffffffffffffffffffffffffffff16021790555060a0820151816005015560c08201518160060160006101000a81548160ff02191690836001811115610cc257fe5b021790555060e0820151816007015561010082015181600801555050600360008973ffffffffffffffffffffffffffffffffffffffff1673ffffffffffffffffffffffffffffffffffffffff16815260200190815260200160002060008154809291906001019190505550876004600083815260200190815260200160002060006101000a81548173ffffffffffffffffffffffffffffffffffffffff021916908373ffffffffffffffffffffffffffffffffffffffff1602179055506005600081548092919060010191905055508773ffffffffffffffffffffffffffffffffffffffff167f7b08f9aeb6e6ab8650d6883d1bc7dd4380158a37c5a9156b06bfb7e874aefe05826040518082815260200191505060405180910390a2509695505050505050565b60046020528060005260406000206000915054906101000a900473ffffffffffffffffffffffffffffffffffffffff1681565b60036020528060005260406000206000915090505481565b6000600160009054906101000a900473ffffffffffffffffffffffffffffffffffffffff1673ffffffffffffffffffffffffffffffffffffffff163373ffffffffffffffffffffffffffffffffffffffff1614610edd576040517f08c379a0000000000000000000000000000000000000000000000000000000008152600401808060200182810382526024815260200180612bab6024913960400191505060405180910390fd5b6000600760009054906101000a900473ffffffffffffffffffffffffffffffffffffffff16905082600760006101000a81548173ffffffffffffffffffffffffffffffffffffffff021916908373ffffffffffffffffffffffffffffffffffffffff1602179055508273ffffffffffffffffffffffffffffffffffffffff168173ffffffffffffffffffffffffffffffffffffffff167f45d2e5558338aa15dc4b08f360804459b86dd441ea705d11d2286dd08539979660405160405180910390a350919050565b600060068281548110610fb457fe5b906000526020600020906009020160010160009054906101000a900473ffffffffffffffffffffffffffffffffffffffff1673ffffffffffffffffffffffffffffffffffffffff163373ffffffffffffffffffffffffffffffffffffffff1614611069576040517f08c379a0000000000000000000000000000000000000000000000000000000008152600401808060200182810382526023815260200180612b886023913960400191505060405180910390fd5b6000600181111561107657fe5b6006838154811061108357fe5b906000526020600020906009020160060160009054906101000a900460ff1660018111156110ad57fe5b14611120576040517f08c379a000000000000000000000000000000000000000000000000000000000815260040180806020018281038252600f8152602001807f506c616e206e6f7420616374697665000000000000000000000000000000000081525060200191505060405180910390fd5b60016006838154811061112f57fe5b906000526020600020906009020160060160006101000a81548160ff0219169083600181111561115b57fe5b0217905550919050565b600760149054906101000a900461ffff1681565b600760009054906101000a900473ffffffffffffffffffffffffffffffffffffffff1681565b60008573ffffffffffffffffffffffffffffffffffffffff166323b872dd8830866040518463ffffffff1660e01b8152600401808473ffffffffffffffffffffffffffffffffffffffff1673ffffffffffffffffffffffffffffffffffffffff1681526020018373ffffffffffffffffffffffffffffffffffffffff1673ffffffffffffffffffffffffffffffffffffffff1681526020018281526020019350505050602060405180830381600087803b15801561125c57600080fd5b505af1158015611270573d6000803e3d6000fd5b505050506040513d602081101561128657600080fd5b81019080805190602001909291905050506112ec576040517f08c379a000000000000000000000000000000000000000000000000000000000815260040180806020018281038252602a815260200180612bcf602a913960400191505060405180910390fd5b8573ffffffffffffffffffffffffffffffffffffffff1663095ea7b3600760009054906101000a900473ffffffffffffffffffffffffffffffffffffffff1660006040518363ffffffff1660e01b8152600401808373ffffffffffffffffffffffffffffffffffffffff1673ffffffffffffffffffffffffffffffffffffffff16815260200182815260200192505050602060405180830381600087803b15801561139657600080fd5b505af11580156113aa573d6000803e3d6000fd5b505050506040513d60208110156113c057600080fd5b8101908080519060200190929190505050611443576040517f08c379a00000000000000000000000000000000000000000000000000000000081526004018080602001828103825260198152602001807f4572726f7220617070726f76696e6720616c6c6f77616e63650000000000000081525060200191505060405180910390fd5b8573ffffffffffffffffffffffffffffffffffffffff1663095ea7b3600760009054906101000a900473ffffffffffffffffffffffffffffffffffffffff16856040518363ffffffff1660e01b8152600401808373ffffffffffffffffffffffffffffffffffffffff1673ffffffffffffffffffffffffffffffffffffffff16815260200182815260200192505050602060405180830381600087803b1580156114ec57600080fd5b505af1158015611500573d6000803e3d6000fd5b505050506040513d602081101561151657600080fd5b8101908080519060200190929190505050611599576040517f08c379a00000000000000000000000000000000000000000000000000000000081526004018080602001828103825260198152602001807f4572726f7220617070726f76696e6720616c6c6f77616e63650000000000000081525060200191505060405180910390fd5b600760009054906101000a900473ffffffffffffffffffffffffffffffffffffffff1673ffffffffffffffffffffffffffffffffffffffff1663809a9e558786866040518463ffffffff1660e01b8152600401808473ffffffffffffffffffffffffffffffffffffffff1673ffffffffffffffffffffffffffffffffffffffff1681526020018373ffffffffffffffffffffffffffffffffffffffff1673ffffffffffffffffffffffffffffffffffffffff1681526020018281526020019350505050604080518083038186803b15801561167357600080fd5b505afa158015611687573d6000803e3d6000fd5b505050506040513d604081101561169d57600080fd5b8101908080519060200190929190805190602001909291905050505080915050600760009054906101000a900473ffffffffffffffffffffffffffffffffffffffff1673ffffffffffffffffffffffffffffffffffffffff1663cb3c28c7878587898787600160009054906101000a900473ffffffffffffffffffffffffffffffffffffffff166040518863ffffffff1660e01b8152600401808873ffffffffffffffffffffffffffffffffffffffff1673ffffffffffffffffffffffffffffffffffffffff1681526020018781526020018673ffffffffffffffffffffffffffffffffffffffff1673ffffffffffffffffffffffffffffffffffffffff1681526020018573ffffffffffffffffffffffffffffffffffffffff1673ffffffffffffffffffffffffffffffffffffffff1681526020018481526020018381526020018273ffffffffffffffffffffffffffffffffffffffff1673ffffffffffffffffffffffffffffffffffffffff168152602001975050505050505050602060405180830381600087803b15801561183457600080fd5b505af1158015611848573d6000803e3d6000fd5b505050506040513d602081101561185e57600080fd5b8101908080519060200190929190505050508473ffffffffffffffffffffffffffffffffffffffff168773ffffffffffffffffffffffffffffffffffffffff167f2db8742c53053920393da3465495ad24ebc945b856f619e88b9a6b5c63358c1d888787604051808473ffffffffffffffffffffffffffffffffffffffff1673ffffffffffffffffffffffffffffffffffffffff1681526020018373ffffffffffffffffffffffffffffffffffffffff1673ffffffffffffffffffffffffffffffffffffffff168152602001828152602001935050505060405180910390a350505050505050565b600160009054906101000a900473ffffffffffffffffffffffffffffffffffffffff1681565b60026020528060005260406000206000915054906101000a900460ff1681565b600081600860006101000a81548173ffffffffffffffffffffffffffffffffffffffff021916908373ffffffffffffffffffffffffffffffffffffffff160217905550600860009054906101000a900473ffffffffffffffffffffffffffffffffffffffff1673ffffffffffffffffffffffffffffffffffffffff16630261bf8b6040518163ffffffff1660e01b815260040160206040518083038186803b158015611a3757600080fd5b505afa158015611a4b573d6000803e3d6000fd5b505050506040513d6020811015611a6157600080fd5b8101908080519060200190929190505050600960006101000a81548173ffffffffffffffffffffffffffffffffffffffff021916908373ffffffffffffffffffffffffffffffffffffffff160217905550919050565b60068181548110611ac457fe5b90600052602060002090600902016000915090508060000154908060010160009054906101000a900473ffffffffffffffffffffffffffffffffffffffff16908060020160009054906101000a900473ffffffffffffffffffffffffffffffffffffffff16908060030160009054906101000a900473ffffffffffffffffffffffffffffffffffffffff16908060040160009054906101000a900473ffffffffffffffffffffffffffffffffffffffff16908060050154908060060160009054906101000a900460ff16908060070154908060080154905089565b606080600360008473ffffffffffffffffffffffffffffffffffffffff1673ffffffffffffffffffffffffffffffffffffffff1681526020019081526020016000205467ffffffffffffffff81118015611bf857600080fd5b50604051908082528060200260200182016040528015611c275781602001602082028036833780820191505090505b509050600080905060008090505b600680549050811015611cd8578473ffffffffffffffffffffffffffffffffffffffff166004600083815260200190815260200160002060009054906101000a900473ffffffffffffffffffffffffffffffffffffffff1673ffffffffffffffffffffffffffffffffffffffff161415611ccb5780838381518110611cb657fe5b60200260200101818152505081806001019250505b8080600101915050611c35565b508192505050919050565b600860009054906101000a900473ffffffffffffffffffffffffffffffffffffffff1681565b60008060009054906101000a900473ffffffffffffffffffffffffffffffffffffffff16905090565b806000806101000a81548173ffffffffffffffffffffffffffffffffffffffff021916908373ffffffffffffffffffffffffffffffffffffffff16021790555050565b60008373ffffffffffffffffffffffffffffffffffffffff166323b872dd3330866040518463ffffffff1660e01b8152600401808473ffffffffffffffffffffffffffffffffffffffff1673ffffffffffffffffffffffffffffffffffffffff1681526020018373ffffffffffffffffffffffffffffffffffffffff1673ffffffffffffffffffffffffffffffffffffffff1681526020018281526020019350505050602060405180830381600087803b158015611e3257600080fd5b505af1158015611e46573d6000803e3d6000fd5b505050506040513d6020811015611e5c57600080fd5b8101908080519060200190929190505050508373ffffffffffffffffffffffffffffffffffffffff1663095ea7b3600860009054906101000a900473ffffffffffffffffffffffffffffffffffffffff1673ffffffffffffffffffffffffffffffffffffffff1663ed6ff7606040518163ffffffff1660e01b815260040160206040518083038186803b158015611ef257600080fd5b505afa158015611f06573d6000803e3d6000fd5b505050506040513d6020811015611f1c57600080fd5b8101908080519060200190929190505050856040518363ffffffff1660e01b8152600401808373ffffffffffffffffffffffffffffffffffffffff1673ffffffffffffffffffffffffffffffffffffffff16815260200182815260200192505050602060405180830381600087803b158015611f9757600080fd5b505af1158015611fab573d6000803e3d6000fd5b505050506040513d6020811015611fc157600080fd5b810190808051906020019092919050505050600960009054906101000a900473ffffffffffffffffffffffffffffffffffffffff1673ffffffffffffffffffffffffffffffffffffffff1663d2d0e0668585856040518463ffffffff1660e01b8152600401808473ffffffffffffffffffffffffffffffffffffffff1673ffffffffffffffffffffffffffffffffffffffff1681526020018381526020018261ffff1661ffff1681526020019350505050600060405180830381600087803b15801561208c57600080fd5b505af11580156120a0573d6000803e3d6000fd5b505050506000600960009054906101000a900473ffffffffffffffffffffffffffffffffffffffff1673ffffffffffffffffffffffffffffffffffffffff166335ea6a75866040518263ffffffff1660e01b8152600401808273ffffffffffffffffffffffffffffffffffffffff1673ffffffffffffffffffffffffffffffffffffffff1681526020019150506101a06040518083038186803b15801561214657600080fd5b505afa15801561215a573d6000803e3d6000fd5b505050506040513d6101a081101561217157600080fd5b8101908080519060200190929190805190602001909291908051906020019092919080519060200190929190805190602001909291908051906020019092919080519060200190929190805190602001909291908051906020019092919080519060200190929190805190602001909291908051906020019092919080519060200190929190505050909192939495969798999a9b50909192939495969798999a5090919293949596979899509091929394959697985090919293949596975090919293949596509091929394955090919293945090919293509091925090915050809150508073ffffffffffffffffffffffffffffffffffffffff1663095ea7b330866040518363ffffffff1660e01b8152600401808373ffffffffffffffffffffffffffffffffffffffff1673ffffffffffffffffffffffffffffffffffffffff16815260200182815260200192505050602060405180830381600087803b1580156122de57600080fd5b505af11580156122f2573d6000803e3d6000fd5b505050506040513d602081101561230857600080fd5b810190808051906020019092919050505061238b576040517f08c379a000000000000000000000000000000000000000000000000000000000815260040180806020018281038252600f8152602001807f4572726f7220617070726f76696e67000000000000000000000000000000000081525060200191505060405180910390fd5b8073ffffffffffffffffffffffffffffffffffffffff166323b872dd3033876040518463ffffffff1660e01b8152600401808473ffffffffffffffffffffffffffffffffffffffff1673ffffffffffffffffffffffffffffffffffffffff1681526020018373ffffffffffffffffffffffffffffffffffffffff1673ffffffffffffffffffffffffffffffffffffffff1681526020018281526020019350505050602060405180830381600087803b15801561244657600080fd5b505af115801561245a573d6000803e3d6000fd5b505050506040513d602081101561247057600080fd5b81019080805190602001909291905050506124f3576040517f08c379a00000000000000000000000000000000000000000000000000000000081526004018080602001828103825260198152602001807f4572726f72207472616e7366657272696e6720746f6b656e730000000000000081525060200191505060405180910390fd5b509392505050565b60008273ffffffffffffffffffffffffffffffffffffffff166323b872dd3330856040518463ffffffff1660e01b8152600401808473ffffffffffffffffffffffffffffffffffffffff1673ffffffffffffffffffffffffffffffffffffffff1681526020018373ffffffffffffffffffffffffffffffffffffffff1673ffffffffffffffffffffffffffffffffffffffff1681526020018281526020019350505050602060405180830381600087803b1580156125b857600080fd5b505af11580156125cc573d6000803e3d6000fd5b505050506040513d60208110156125e257600080fd5b8101908080519060200190929190505050508273ffffffffffffffffffffffffffffffffffffffff1663db006a75836040518263ffffffff1660e01b815260040180828152602001915050600060405180830381600087803b15801561264757600080fd5b505af115801561265b573d6000803e3d6000fd5b5050505060008373ffffffffffffffffffffffffffffffffffffffff166389d1a0fc6040518163ffffffff1660e01b815260040160206040518083038186803b1580156126a757600080fd5b505afa1580156126bb573d6000803e3d6000fd5b505050506040513d60208110156126d157600080fd5b810190808051906020019092919050505090508073ffffffffffffffffffffffffffffffffffffffff1663095ea7b330856040518363ffffffff1660e01b8152600401808373ffffffffffffffffffffffffffffffffffffffff1673ffffffffffffffffffffffffffffffffffffffff16815260200182815260200192505050602060405180830381600087803b15801561276b57600080fd5b505af115801561277f573d6000803e3d6000fd5b505050506040513d602081101561279557600080fd5b8101908080519060200190929190505050508073ffffffffffffffffffffffffffffffffffffffff166323b872dd3033866040518463ffffffff1660e01b8152600401808473ffffffffffffffffffffffffffffffffffffffff1673ffffffffffffffffffffffffffffffffffffffff1681526020018373ffffffffffffffffffffffffffffffffffffffff1673ffffffffffffffffffffffffffffffffffffffff1681526020018281526020019350505050602060405180830381600087803b15801561286257600080fd5b505af1158015612876573d6000803e3d6000fd5b505050506040513d602081101561288c57600080fd5b8101908080519060200190929190505050505092915050565b600960009054906101000a900473ffffffffffffffffffffffffffffffffffffffff1681565b6128d3612ad8565b600682815481106128e057fe5b906000526020600020906009020160405180610120016040529081600082015481526020016001820160009054906101000a900473ffffffffffffffffffffffffffffffffffffffff1673ffffffffffffffffffffffffffffffffffffffff1673ffffffffffffffffffffffffffffffffffffffff1681526020016002820160009054906101000a900473ffffffffffffffffffffffffffffffffffffffff1673ffffffffffffffffffffffffffffffffffffffff1673ffffffffffffffffffffffffffffffffffffffff1681526020016003820160009054906101000a900473ffffffffffffffffffffffffffffffffffffffff1673ffffffffffffffffffffffffffffffffffffffff1673ffffffffffffffffffffffffffffffffffffffff1681526020016004820160009054906101000a900473ffffffffffffffffffffffffffffffffffffffff1673ffffffffffffffffffffffffffffffffffffffff1673ffffffffffffffffffffffffffffffffffffffff168152602001600582015481526020016006820160009054906101000a900460ff166001811115612a8457fe5b6001811115612a8f57fe5b8152602001600782015481526020016008820154815250509050612ad481602001518260600151836040015184608001518560e0015168056bc75e2d6310000061119f565b5050565b60405180610120016040528060008152602001600073ffffffffffffffffffffffffffffffffffffffff168152602001600073ffffffffffffffffffffffffffffffffffffffff168152602001600073ffffffffffffffffffffffffffffffffffffffff168152602001600073ffffffffffffffffffffffffffffffffffffffff1681526020016000815260200160006001811115612b7357fe5b81526020016000815260200160008152509056fe4e6f7420617574686f72697a656420746f206368616e676520534950207374617475734e6f7420617574686f72697a656420746f2063616c6c20746869732066756e6374696f6e5472616e73666572206f6620746f6b656e2066726f6d2075736572206163636f756e74206661696c6564a26469706673582212208129a67ea73cb25da9f7c8f24ec8133316c9fb86dd18ef79357ed5d77a1927bd64736f6c63430006080033",
  "immutableReferences": {},
  "source": "pragma solidity ^0.6.2;\n\n\nimport \"./ERC20Interface.sol\";\nimport \"./KyberNetworkProxy.sol\";\nimport \"./ILendingPool.sol\";\nimport \"./ILendingPoolAddressesProvider.sol\";\nimport \"./ATokenInterface.sol\";\nimport \"@opengsn/gsn/contracts/BaseRelayRecipient.sol\";\n\n\ncontract CapitalETH is BaseRelayRecipient {\n\n    address payable public owner;\n\n    mapping(address => bool) public processors;        //Mapping of all valid SIP processors\n    mapping(address => uint) public userSIPCount;      //Mapping of Address to SIP count\n    mapping(uint => address) public idToAddress;       //Mapping of SIP id to user address\n\n    enum Status{ active, paused }\n    uint totalSIPCount;\n\n    //Structure of the SIP Plan\n    struct Plan {\n\n        uint id;            //Unique ID of SIP\n\n        address payable srcAccount;         //Wallet address from where source token will be debited\n        address payable destAccount;        //Wallet address where the destination token will be deposited\n\n        address srcToken;           //Address of source Token (ERC20)\n        address destToken;          //Address of destination Token (ERC20)\n\n        uint period;        //Number of days between deduction\n        Status status;      //Status of the investment plan\n\n        uint amount;        //Amount to be deducted every period interval (18 decimals)\n        uint lastTx;        //Timestamp of the last transaction\n    }\n\n    //Array of SIPs to store all the SIPs\n    Plan[] public plans;\n\n    //Kyber Network Proxy contract address to swap tokens\n    KyberNetworkProxyInterface public kyberNetworkProxyContract;\n\n    //Aave Lending Pool contract Address\n    uint16 public aaveRef;\n    ILendingPoolAddressesProvider public aaveAddressProvider;\n    ILendingPool public aaveLendingPool;\n\n    constructor() public {\n        owner = msg.sender;\n        processors[owner] = true;\n    }\n\n    receive() external payable { }\n    fallback() external payable { }\n\n    //Events\n    event newSIPCreated(uint id, address indexed srcAccount);\n    // SIPUpdated();\n    // installmentReceived();\n    event updateKyberNetworkProxyContract(address indexed oldAddress, address indexed newContractAddress);\n\n    event tokensSwapped(\n        address indexed srcAccount,\n        ERC20 srcToken,\n        address indexed destAccount,\n        ERC20 destToken,\n        uint srcQty);\n\n    function createSIP( address payable srcAccount,\n                        address payable destAccount,\n                        address srcToken,\n                        address destToken,\n                        uint period,\n                        uint amount\n                    ) public returns (uint) {\n\n        uint planId = totalSIPCount++;\n\n        plans.push(Plan(planId, srcAccount, destAccount, srcToken, destToken, period, Status.active, amount, now));\n\n        userSIPCount[srcAccount]++;\n        idToAddress[planId] = srcAccount;\n        totalSIPCount++;\n\n        emit newSIPCreated(planId, srcAccount);\n    }\n\n    // function processMultipleSIPs(uint[] memory planIDs) public {\n\n    //     //Check if msg.sender is a valid processor\n    //     require(processors[msg.sender], \"Only valid processors can trigger installments\");\n\n    //     for(uint i = 0; i < planIDs.length; i++ ) {\n    //         Plan memory userPlan = plans[i];\n    //         executeSwap( ERC20(userPlan.srcToken),\n    //                      userPlan.amount,\n    //                      ERC20(userPlan.destToken),\n    //                      userPlan.destAccount,\n    //                     1e18);\n    //     }\n    // }\n\n    function processSingleSIP(uint sipID) public {\n        // require(processors[msg.sender], \"Only valid processors can trigger installments\");\n\n        Plan memory userPlan = plans[sipID];\n        swapTokensUsingKyber(\n            userPlan.srcAccount,\n            ERC20(userPlan.srcToken),\n            userPlan.destAccount,\n            ERC20(userPlan.destToken),\n            userPlan.amount,\n            100 * 1e18);\n    }\n\n    function pauseSIP(uint id) public returns (bool) {\n        require(msg.sender == plans[id].srcAccount, \"Not authorized to change SIP status\");\n\n        require(plans[id].status == Status.active, \"Plan not active\");\n\n        //Pause the status of SIP\n        plans[id].status = Status.paused;\n    }\n\n    function getPlansByAddress(\n        address srcAddress\n    )\n    public\n    view\n    returns (uint[] memory) {\n\n        uint[] memory result = new uint[](userSIPCount[srcAddress]);\n        uint index = 0;\n        for (uint i = 0; i < plans.length; i++) {\n            if (idToAddress[i] == srcAddress) {\n                result[index] = i;\n                index++;\n            }\n        }\n        return result;\n    }\n\n/*\n*******************************************************************************\n* Kyber Network contract functions\n/******************************************************************************\n*/\n    function setKyberNetworkProxyContract(address newContractAddress) public returns (bool) {\n\n        require(msg.sender == owner, \"Not authorized to call this function\");\n        address oldAddress = address(kyberNetworkProxyContract);\n        kyberNetworkProxyContract = KyberNetworkProxyInterface(newContractAddress);\n        emit updateKyberNetworkProxyContract(oldAddress, newContractAddress);\n\n    }\n\n    function swapTokensUsingKyber(\n        address srcAccount,\n        ERC20 srcToken,\n        address destAccount,\n        ERC20 destToken,\n        uint srcQty,\n        uint maxDestAmount\n    ) public {\n\n        uint minConversionRate;\n        require(srcToken.transferFrom(\n            srcAccount,\n            address(this),\n            srcQty),\n            \"Transfer of token from user account failed\"\n        );\n\n        // Mitigate ERC20 Approve front-running attack, by initially setting allowance to 0\n        require(srcToken.approve(address(kyberNetworkProxyContract), 0), \"Error approving allowance\");\n        require(srcToken.approve(address(kyberNetworkProxyContract), srcQty), \"Error approving allowance\");\n\n        // Get the minimum conversion rate\n        (minConversionRate,) = kyberNetworkProxyContract.getExpectedRate(srcToken, destToken, srcQty);\n\n        // Swap the ERC20 token and send to destAddress\n        kyberNetworkProxyContract.trade(\n            srcToken,\n            srcQty,\n            destToken,\n            destAccount,\n            maxDestAmount,\n            minConversionRate,\n            owner\n        );\n\n        // Log the event\n        emit tokensSwapped(srcAccount, srcToken, destAccount, destToken, srcQty);\n    }\n\n/*\n*******************************************************************************\n* Aave contract functions\n/******************************************************************************\n*/\n\n    function setAaveAddress(address lendingPoolAddressProvider) public returns (bool) {\n\n        aaveAddressProvider = ILendingPoolAddressesProvider(lendingPoolAddressProvider);\n        aaveLendingPool = ILendingPool(aaveAddressProvider.getLendingPool());\n\n    }\n\n    function getInterestBearingATokens(\n        address srcToken,\n        uint amount,\n        uint16 ref\n    ) public returns (bool) {\n\n        //Transfer source token from user to this contract\n        ERC20(srcToken).transferFrom(msg.sender, address(this), amount);\n\n        ERC20(srcToken).approve(aaveAddressProvider.getLendingPoolCore(), amount);\n\n        //Deposits the source Tokens from contract and returns aTokens\n        aaveLendingPool.deposit(srcToken, amount, ref);\n\n        address aTokenAddress;\n\n        //Get the aToken Address\n        (, , , , , , , , , , , aTokenAddress, ) = aaveLendingPool.getReserveData(srcToken);\n\n        require(ERC20(aTokenAddress).approve(address(this), amount), \"Error approving\");\n\n        require(ERC20(aTokenAddress).transferFrom(address(this), msg.sender, amount), \"Error transferring tokens\");\n    }\n\n    function getUnderlyingToken(\n        address aTokenAddress,\n        uint amount\n    )\n    public\n    returns (bool) {\n\n        ERC20(aTokenAddress).transferFrom(msg.sender, address(this), amount);\n\n        //Redeem underlying tokens. The underlying token is transferred to this contract\n        AToken(aTokenAddress).redeem(amount);\n\n        //Get underlying token address\n        address underlyingToken = AToken(aTokenAddress).underlyingAssetAddress();\n\n        ERC20(underlyingToken).approve(address(this), amount);\n\n        ERC20(underlyingToken).transferFrom(address(this), msg.sender, amount);\n\n    }\n\n/*\n*******************************************************************************\n* OpenGSN functions\n/******************************************************************************\n*/\n    function setTrustedForwarder(address forwarder) public {\n        trustedForwarder = forwarder;\n    }\n\n}",
  "sourcePath": "/home/sudeep/projects/capitalETH/contracts/CapitalETH.sol",
  "compiler": {
    "name": "solc",
    "version": "0.6.8+commit.0bbfe453.Emscripten.clang"
  },
  "schemaVersion": "3.1.0",
  "updatedAt": "2020-05-16T21:48:01.736Z",
  "devdoc": {
    "methods": {}
  },
  "userdoc": {
    "methods": {}
  }
}