{
  "contractName": "CapitalETH",
  "abi": [
    {
      "inputs": [],
      "stateMutability": "nonpayable",
      "type": "constructor"
    },
    {
      "anonymous": false,
      "inputs": [
        {
          "indexed": true,
          "internalType": "address",
          "name": "previousOwner",
          "type": "address"
        },
        {
          "indexed": true,
          "internalType": "address",
          "name": "newOwner",
          "type": "address"
        }
      ],
      "name": "OwnershipTransferred",
      "type": "event"
    },
    {
      "anonymous": false,
      "inputs": [
        {
          "indexed": false,
          "internalType": "uint256",
          "name": "id",
          "type": "uint256"
        },
        {
          "indexed": true,
          "internalType": "address",
          "name": "srcAccount",
          "type": "address"
        },
        {
          "indexed": true,
          "internalType": "address",
          "name": "destAccount",
          "type": "address"
        },
        {
          "indexed": false,
          "internalType": "address",
          "name": "srcToken",
          "type": "address"
        },
        {
          "indexed": false,
          "internalType": "address",
          "name": "destToken",
          "type": "address"
        },
        {
          "indexed": false,
          "internalType": "uint256",
          "name": "amount",
          "type": "uint256"
        }
      ],
      "name": "newSIPCreated",
      "type": "event"
    },
    {
      "anonymous": false,
      "inputs": [
        {
          "indexed": true,
          "internalType": "address",
          "name": "srcAccount",
          "type": "address"
        },
        {
          "indexed": false,
          "internalType": "contract ERC20",
          "name": "srcToken",
          "type": "address"
        },
        {
          "indexed": true,
          "internalType": "address",
          "name": "destAccount",
          "type": "address"
        },
        {
          "indexed": false,
          "internalType": "contract ERC20",
          "name": "destToken",
          "type": "address"
        },
        {
          "indexed": false,
          "internalType": "uint256",
          "name": "srcQty",
          "type": "uint256"
        }
      ],
      "name": "tokensSwapped",
      "type": "event"
    },
    {
      "anonymous": false,
      "inputs": [
        {
          "indexed": true,
          "internalType": "address",
          "name": "oldAddress",
          "type": "address"
        },
        {
          "indexed": true,
          "internalType": "address",
          "name": "newContractAddress",
          "type": "address"
        }
      ],
      "name": "updateKyberNetworkProxyContract",
      "type": "event"
    },
    {
      "stateMutability": "payable",
      "type": "fallback",
      "payable": true
    },
    {
      "inputs": [],
      "name": "aaveAddressProvider",
      "outputs": [
        {
          "internalType": "contract ILendingPoolAddressesProvider",
          "name": "",
          "type": "address"
        }
      ],
      "stateMutability": "view",
      "type": "function",
      "constant": true
    },
    {
      "inputs": [],
      "name": "aaveLendingPool",
      "outputs": [
        {
          "internalType": "contract ILendingPool",
          "name": "",
          "type": "address"
        }
      ],
      "stateMutability": "view",
      "type": "function",
      "constant": true
    },
    {
      "inputs": [],
      "name": "aaveRef",
      "outputs": [
        {
          "internalType": "uint16",
          "name": "",
          "type": "uint16"
        }
      ],
      "stateMutability": "view",
      "type": "function",
      "constant": true
    },
    {
      "inputs": [
        {
          "internalType": "uint256",
          "name": "",
          "type": "uint256"
        }
      ],
      "name": "idToAddress",
      "outputs": [
        {
          "internalType": "address",
          "name": "",
          "type": "address"
        }
      ],
      "stateMutability": "view",
      "type": "function",
      "constant": true
    },
    {
      "inputs": [],
      "name": "kyberNetworkProxyContract",
      "outputs": [
        {
          "internalType": "contract KyberNetworkProxyInterface",
          "name": "",
          "type": "address"
        }
      ],
      "stateMutability": "view",
      "type": "function",
      "constant": true
    },
    {
      "inputs": [],
      "name": "owner",
      "outputs": [
        {
          "internalType": "address",
          "name": "",
          "type": "address"
        }
      ],
      "stateMutability": "view",
      "type": "function",
      "constant": true
    },
    {
      "inputs": [
        {
          "internalType": "uint256",
          "name": "",
          "type": "uint256"
        }
      ],
      "name": "plans",
      "outputs": [
        {
          "internalType": "uint256",
          "name": "id",
          "type": "uint256"
        },
        {
          "internalType": "address payable",
          "name": "srcAccount",
          "type": "address"
        },
        {
          "internalType": "address payable",
          "name": "destAccount",
          "type": "address"
        },
        {
          "internalType": "address",
          "name": "srcToken",
          "type": "address"
        },
        {
          "internalType": "address",
          "name": "destToken",
          "type": "address"
        },
        {
          "internalType": "bool",
          "name": "isActive",
          "type": "bool"
        },
        {
          "internalType": "bool",
          "name": "interestEnabled",
          "type": "bool"
        },
        {
          "internalType": "uint256",
          "name": "frequency",
          "type": "uint256"
        },
        {
          "internalType": "uint256",
          "name": "amount",
          "type": "uint256"
        },
        {
          "internalType": "uint256",
          "name": "createdAt",
          "type": "uint256"
        },
        {
          "internalType": "uint256",
          "name": "lastTx",
          "type": "uint256"
        }
      ],
      "stateMutability": "view",
      "type": "function",
      "constant": true
    },
    {
      "inputs": [
        {
          "internalType": "address",
          "name": "",
          "type": "address"
        }
      ],
      "name": "processors",
      "outputs": [
        {
          "internalType": "bool",
          "name": "",
          "type": "bool"
        }
      ],
      "stateMutability": "view",
      "type": "function",
      "constant": true
    },
    {
      "inputs": [],
      "name": "renounceOwnership",
      "outputs": [],
      "stateMutability": "nonpayable",
      "type": "function"
    },
    {
      "inputs": [],
      "name": "totalSIPCount",
      "outputs": [
        {
          "internalType": "uint256",
          "name": "",
          "type": "uint256"
        }
      ],
      "stateMutability": "view",
      "type": "function",
      "constant": true
    },
    {
      "inputs": [
        {
          "internalType": "address",
          "name": "newOwner",
          "type": "address"
        }
      ],
      "name": "transferOwnership",
      "outputs": [],
      "stateMutability": "nonpayable",
      "type": "function"
    },
    {
      "inputs": [
        {
          "internalType": "address",
          "name": "",
          "type": "address"
        }
      ],
      "name": "userSIPCount",
      "outputs": [
        {
          "internalType": "uint256",
          "name": "",
          "type": "uint256"
        }
      ],
      "stateMutability": "view",
      "type": "function",
      "constant": true
    },
    {
      "stateMutability": "payable",
      "type": "receive",
      "payable": true
    },
    {
      "inputs": [
        {
          "internalType": "address payable",
          "name": "destAccount",
          "type": "address"
        },
        {
          "internalType": "address",
          "name": "srcToken",
          "type": "address"
        },
        {
          "internalType": "address",
          "name": "destToken",
          "type": "address"
        },
        {
          "internalType": "bool",
          "name": "interestEnabled",
          "type": "bool"
        },
        {
          "internalType": "uint256",
          "name": "frequency",
          "type": "uint256"
        },
        {
          "internalType": "uint256",
          "name": "amount",
          "type": "uint256"
        }
      ],
      "name": "createSIP",
      "outputs": [
        {
          "internalType": "uint256",
          "name": "",
          "type": "uint256"
        }
      ],
      "stateMutability": "nonpayable",
      "type": "function"
    },
    {
      "inputs": [
        {
          "internalType": "uint256",
          "name": "sipID",
          "type": "uint256"
        }
      ],
      "name": "processSingleSIP",
      "outputs": [],
      "stateMutability": "nonpayable",
      "type": "function"
    },
    {
      "inputs": [
        {
          "internalType": "uint256",
          "name": "id",
          "type": "uint256"
        }
      ],
      "name": "pauseSIP",
      "outputs": [],
      "stateMutability": "nonpayable",
      "type": "function"
    },
    {
      "inputs": [
        {
          "internalType": "uint256",
          "name": "id",
          "type": "uint256"
        }
      ],
      "name": "resumeSIP",
      "outputs": [],
      "stateMutability": "nonpayable",
      "type": "function"
    },
    {
      "inputs": [
        {
          "internalType": "uint256",
          "name": "amount",
          "type": "uint256"
        }
      ],
      "name": "calculateProcessorFee",
      "outputs": [
        {
          "internalType": "uint256",
          "name": "",
          "type": "uint256"
        }
      ],
      "stateMutability": "nonpayable",
      "type": "function"
    },
    {
      "inputs": [
        {
          "internalType": "address",
          "name": "srcAddress",
          "type": "address"
        }
      ],
      "name": "getPlansByAddress",
      "outputs": [
        {
          "internalType": "uint256[]",
          "name": "",
          "type": "uint256[]"
        }
      ],
      "stateMutability": "view",
      "type": "function",
      "constant": true
    },
    {
      "inputs": [
        {
          "internalType": "address",
          "name": "newContractAddress",
          "type": "address"
        }
      ],
      "name": "setKyberNetworkProxyContract",
      "outputs": [
        {
          "internalType": "bool",
          "name": "",
          "type": "bool"
        }
      ],
      "stateMutability": "nonpayable",
      "type": "function"
    },
    {
      "inputs": [
        {
          "internalType": "address",
          "name": "srcAccount",
          "type": "address"
        },
        {
          "internalType": "contract ERC20",
          "name": "srcToken",
          "type": "address"
        },
        {
          "internalType": "address",
          "name": "destAccount",
          "type": "address"
        },
        {
          "internalType": "contract ERC20",
          "name": "destToken",
          "type": "address"
        },
        {
          "internalType": "uint256",
          "name": "srcQty",
          "type": "uint256"
        },
        {
          "internalType": "uint256",
          "name": "maxDestAmount",
          "type": "uint256"
        }
      ],
      "name": "swapTokensUsingKyber",
      "outputs": [],
      "stateMutability": "nonpayable",
      "type": "function"
    },
    {
      "inputs": [
        {
          "internalType": "address",
          "name": "lendingPoolAddressProvider",
          "type": "address"
        }
      ],
      "name": "setAaveAddress",
      "outputs": [
        {
          "internalType": "bool",
          "name": "",
          "type": "bool"
        }
      ],
      "stateMutability": "nonpayable",
      "type": "function"
    },
    {
      "inputs": [
        {
          "internalType": "address",
          "name": "srcToken",
          "type": "address"
        },
        {
          "internalType": "uint256",
          "name": "amount",
          "type": "uint256"
        },
        {
          "internalType": "uint16",
          "name": "ref",
          "type": "uint16"
        }
      ],
      "name": "getInterestBearingATokens",
      "outputs": [
        {
          "internalType": "address",
          "name": "",
          "type": "address"
        }
      ],
      "stateMutability": "nonpayable",
      "type": "function"
    },
    {
      "inputs": [
        {
          "internalType": "address",
          "name": "aTokenAddress",
          "type": "address"
        },
        {
          "internalType": "uint256",
          "name": "amount",
          "type": "uint256"
        }
      ],
      "name": "getUnderlyingToken",
      "outputs": [
        {
          "internalType": "address",
          "name": "",
          "type": "address"
        }
      ],
      "stateMutability": "nonpayable",
      "type": "function"
    }
  ],
  "bytecode": "0x60806040523480156200001157600080fd5b506000620000246200012860201b60201c565b9050806000806101000a81548173ffffffffffffffffffffffffffffffffffffffff021916908373ffffffffffffffffffffffffffffffffffffffff1602179055508073ffffffffffffffffffffffffffffffffffffffff16600073ffffffffffffffffffffffffffffffffffffffff167f8be0079c531659141344cd1fd0a4f28419497f9722a3daafe3b4186f6b6457e060405160405180910390a3506001600260003373ffffffffffffffffffffffffffffffffffffffff1673ffffffffffffffffffffffffffffffffffffffff16815260200190815260200160002060006101000a81548160ff021916908315150217905550600060058190555062000130565b600033905090565b61383d80620001406000396000f3fe6080604052600436106101445760003560e01c806392430de6116100b6578063db6b377e1161006f578063db6b377e146108e9578063e17549ed14610992578063e9d337b814610a2d578063eb0097be14610a84578063ef31d15414610abf578063f2fde38b14610afa5761014b565b806392430de61461057e578063965e064a146105cd578063b1035aa414610636578063b16206161461069f578063bc9889a9146107ec578063cdaabe41146108925761014b565b8063656391321161010857806365639132146102fc578063715018a61461032f578063785250da146103465780638308452b1461039d5780638864ec9e146104625780638da5cb5b146105275761014b565b80632a2d0c471461014d5780633ac13589146101c85780633f19d6f01461022d578063401a7da214610296578063553b9c8a146102d15761014b565b3661014b57005b005b34801561015957600080fd5b506101866004803603602081101561017057600080fd5b8101908080359060200190929190505050610b4b565b604051808273ffffffffffffffffffffffffffffffffffffffff1673ffffffffffffffffffffffffffffffffffffffff16815260200191505060405180910390f35b3480156101d457600080fd5b50610217600480360360208110156101eb57600080fd5b81019080803573ffffffffffffffffffffffffffffffffffffffff169060200190929190505050610b7e565b6040518082815260200191505060405180910390f35b34801561023957600080fd5b5061027c6004803603602081101561025057600080fd5b81019080803573ffffffffffffffffffffffffffffffffffffffff169060200190929190505050610b96565b604051808215151515815260200191505060405180910390f35b3480156102a257600080fd5b506102cf600480360360208110156102b957600080fd5b8101908080359060200190929190505050610cd3565b005b3480156102dd57600080fd5b506102e6610e6d565b6040518082815260200191505060405180910390f35b34801561030857600080fd5b50610311610e73565b604051808261ffff1661ffff16815260200191505060405180910390f35b34801561033b57600080fd5b50610344610e87565b005b34801561035257600080fd5b5061035b61100f565b604051808273ffffffffffffffffffffffffffffffffffffffff1673ffffffffffffffffffffffffffffffffffffffff16815260200191505060405180910390f35b3480156103a957600080fd5b50610460600480360360c08110156103c057600080fd5b81019080803573ffffffffffffffffffffffffffffffffffffffff169060200190929190803573ffffffffffffffffffffffffffffffffffffffff169060200190929190803573ffffffffffffffffffffffffffffffffffffffff169060200190929190803573ffffffffffffffffffffffffffffffffffffffff1690602001909291908035906020019092919080359060200190929190505050611035565b005b34801561046e57600080fd5b50610511600480360360c081101561048557600080fd5b81019080803573ffffffffffffffffffffffffffffffffffffffff169060200190929190803573ffffffffffffffffffffffffffffffffffffffff169060200190929190803573ffffffffffffffffffffffffffffffffffffffff16906020019092919080351515906020019092919080359060200190929190803590602001909291905050506117bb565b6040518082815260200191505060405180910390f35b34801561053357600080fd5b5061053c611bea565b604051808273ffffffffffffffffffffffffffffffffffffffff1673ffffffffffffffffffffffffffffffffffffffff16815260200191505060405180910390f35b34801561058a57600080fd5b506105b7600480360360208110156105a157600080fd5b8101908080359060200190929190505050611c13565b6040518082815260200191505060405180910390f35b3480156105d957600080fd5b5061061c600480360360208110156105f057600080fd5b81019080803573ffffffffffffffffffffffffffffffffffffffff169060200190929190505050611c2a565b604051808215151515815260200191505060405180910390f35b34801561064257600080fd5b506106856004803603602081101561065957600080fd5b81019080803573ffffffffffffffffffffffffffffffffffffffff169060200190929190505050611c4a565b604051808215151515815260200191505060405180910390f35b3480156106ab57600080fd5b506106d8600480360360208110156106c257600080fd5b8101908080359060200190929190505050611e3e565b604051808c81526020018b73ffffffffffffffffffffffffffffffffffffffff1673ffffffffffffffffffffffffffffffffffffffff1681526020018a73ffffffffffffffffffffffffffffffffffffffff1673ffffffffffffffffffffffffffffffffffffffff1681526020018973ffffffffffffffffffffffffffffffffffffffff1673ffffffffffffffffffffffffffffffffffffffff1681526020018873ffffffffffffffffffffffffffffffffffffffff1673ffffffffffffffffffffffffffffffffffffffff16815260200187151515158152602001861515151581526020018581526020018481526020018381526020018281526020019b50505050505050505050505060405180910390f35b3480156107f857600080fd5b5061083b6004803603602081101561080f57600080fd5b81019080803573ffffffffffffffffffffffffffffffffffffffff169060200190929190505050611f3f565b6040518080602001828103825283818151815260200191508051906020019060200280838360005b8381101561087e578082015181840152602081019050610863565b505050509050019250505060405180910390f35b34801561089e57600080fd5b506108a7612083565b604051808273ffffffffffffffffffffffffffffffffffffffff1673ffffffffffffffffffffffffffffffffffffffff16815260200191505060405180910390f35b3480156108f557600080fd5b506109506004803603606081101561090c57600080fd5b81019080803573ffffffffffffffffffffffffffffffffffffffff16906020019092919080359060200190929190803561ffff1690602001909291905050506120a9565b604051808273ffffffffffffffffffffffffffffffffffffffff1673ffffffffffffffffffffffffffffffffffffffff16815260200191505060405180910390f35b34801561099e57600080fd5b506109eb600480360360408110156109b557600080fd5b81019080803573ffffffffffffffffffffffffffffffffffffffff16906020019092919080359060200190929190505050612832565b604051808273ffffffffffffffffffffffffffffffffffffffff1673ffffffffffffffffffffffffffffffffffffffff16815260200191505060405180910390f35b348015610a3957600080fd5b50610a42612bdf565b604051808273ffffffffffffffffffffffffffffffffffffffff1673ffffffffffffffffffffffffffffffffffffffff16815260200191505060405180910390f35b348015610a9057600080fd5b50610abd60048036036020811015610aa757600080fd5b8101908080359060200190929190505050612c05565b005b348015610acb57600080fd5b50610af860048036036020811015610ae257600080fd5b8101908080359060200190929190505050613225565b005b348015610b0657600080fd5b50610b4960048036036020811015610b1d57600080fd5b81019080803573ffffffffffffffffffffffffffffffffffffffff1690602001909291905050506133bf565b005b60046020528060005260406000206000915054906101000a900473ffffffffffffffffffffffffffffffffffffffff1681565b60036020528060005260406000206000915090505481565b6000610ba06135cc565b73ffffffffffffffffffffffffffffffffffffffff166000809054906101000a900473ffffffffffffffffffffffffffffffffffffffff1673ffffffffffffffffffffffffffffffffffffffff1614610c61576040517f08c379a00000000000000000000000000000000000000000000000000000000081526004018080602001828103825260208152602001807f4f776e61626c653a2063616c6c6572206973206e6f7420746865206f776e657281525060200191505060405180910390fd5b6000600660009054906101000a900473ffffffffffffffffffffffffffffffffffffffff16905082600660006101000a81548173ffffffffffffffffffffffffffffffffffffffff021916908373ffffffffffffffffffffffffffffffffffffffff1602179055506001915050919050565b60018181548110610ce057fe5b906000526020600020906009020160010160009054906101000a900473ffffffffffffffffffffffffffffffffffffffff1673ffffffffffffffffffffffffffffffffffffffff163373ffffffffffffffffffffffffffffffffffffffff1614610d95576040517f08c379a00000000000000000000000000000000000000000000000000000000081526004018080602001828103825260238152602001806137bb6023913960400191505060405180910390fd5b60018181548110610da257fe5b906000526020600020906009020160040160149054906101000a900460ff16610e33576040517f08c379a000000000000000000000000000000000000000000000000000000000815260040180806020018281038252600f8152602001807f506c616e206e6f7420616374697665000000000000000000000000000000000081525060200191505060405180910390fd5b600060018281548110610e4257fe5b906000526020600020906009020160040160146101000a81548160ff02191690831515021790555050565b60055481565b600660149054906101000a900461ffff1681565b610e8f6135cc565b73ffffffffffffffffffffffffffffffffffffffff166000809054906101000a900473ffffffffffffffffffffffffffffffffffffffff1673ffffffffffffffffffffffffffffffffffffffff1614610f50576040517f08c379a00000000000000000000000000000000000000000000000000000000081526004018080602001828103825260208152602001807f4f776e61626c653a2063616c6c6572206973206e6f7420746865206f776e657281525060200191505060405180910390fd5b600073ffffffffffffffffffffffffffffffffffffffff166000809054906101000a900473ffffffffffffffffffffffffffffffffffffffff1673ffffffffffffffffffffffffffffffffffffffff167f8be0079c531659141344cd1fd0a4f28419497f9722a3daafe3b4186f6b6457e060405160405180910390a360008060006101000a81548173ffffffffffffffffffffffffffffffffffffffff021916908373ffffffffffffffffffffffffffffffffffffffff160217905550565b600660009054906101000a900473ffffffffffffffffffffffffffffffffffffffff1681565b60008573ffffffffffffffffffffffffffffffffffffffff166323b872dd8830866040518463ffffffff1660e01b8152600401808473ffffffffffffffffffffffffffffffffffffffff1673ffffffffffffffffffffffffffffffffffffffff1681526020018373ffffffffffffffffffffffffffffffffffffffff1673ffffffffffffffffffffffffffffffffffffffff1681526020018281526020019350505050602060405180830381600087803b1580156110f257600080fd5b505af1158015611106573d6000803e3d6000fd5b505050506040513d602081101561111c57600080fd5b8101908080519060200190929190505050611182576040517f08c379a000000000000000000000000000000000000000000000000000000000815260040180806020018281038252602a8152602001806137de602a913960400191505060405180910390fd5b8573ffffffffffffffffffffffffffffffffffffffff1663095ea7b3600660009054906101000a900473ffffffffffffffffffffffffffffffffffffffff1660006040518363ffffffff1660e01b8152600401808373ffffffffffffffffffffffffffffffffffffffff1673ffffffffffffffffffffffffffffffffffffffff16815260200182815260200192505050602060405180830381600087803b15801561122c57600080fd5b505af1158015611240573d6000803e3d6000fd5b505050506040513d602081101561125657600080fd5b81019080805190602001909291905050506112d9576040517f08c379a00000000000000000000000000000000000000000000000000000000081526004018080602001828103825260198152602001807f4572726f7220617070726f76696e6720616c6c6f77616e63650000000000000081525060200191505060405180910390fd5b8573ffffffffffffffffffffffffffffffffffffffff1663095ea7b3600660009054906101000a900473ffffffffffffffffffffffffffffffffffffffff16856040518363ffffffff1660e01b8152600401808373ffffffffffffffffffffffffffffffffffffffff1673ffffffffffffffffffffffffffffffffffffffff16815260200182815260200192505050602060405180830381600087803b15801561138257600080fd5b505af1158015611396573d6000803e3d6000fd5b505050506040513d60208110156113ac57600080fd5b810190808051906020019092919050505061142f576040517f08c379a00000000000000000000000000000000000000000000000000000000081526004018080602001828103825260198152602001807f4572726f7220617070726f76696e6720616c6c6f77616e63650000000000000081525060200191505060405180910390fd5b600660009054906101000a900473ffffffffffffffffffffffffffffffffffffffff1673ffffffffffffffffffffffffffffffffffffffff1663809a9e558786866040518463ffffffff1660e01b8152600401808473ffffffffffffffffffffffffffffffffffffffff1673ffffffffffffffffffffffffffffffffffffffff1681526020018373ffffffffffffffffffffffffffffffffffffffff1673ffffffffffffffffffffffffffffffffffffffff1681526020018281526020019350505050604080518083038186803b15801561150957600080fd5b505afa15801561151d573d6000803e3d6000fd5b505050506040513d604081101561153357600080fd5b8101908080519060200190929190805190602001909291905050505080915050600660009054906101000a900473ffffffffffffffffffffffffffffffffffffffff1673ffffffffffffffffffffffffffffffffffffffff1663cb3c28c787858789878760006040518863ffffffff1660e01b8152600401808873ffffffffffffffffffffffffffffffffffffffff1673ffffffffffffffffffffffffffffffffffffffff1681526020018781526020018673ffffffffffffffffffffffffffffffffffffffff1673ffffffffffffffffffffffffffffffffffffffff1681526020018573ffffffffffffffffffffffffffffffffffffffff1673ffffffffffffffffffffffffffffffffffffffff1681526020018481526020018381526020018273ffffffffffffffffffffffffffffffffffffffff1673ffffffffffffffffffffffffffffffffffffffff168152602001975050505050505050602060405180830381600087803b1580156116a957600080fd5b505af11580156116bd573d6000803e3d6000fd5b505050506040513d60208110156116d357600080fd5b8101908080519060200190929190505050508473ffffffffffffffffffffffffffffffffffffffff168773ffffffffffffffffffffffffffffffffffffffff167f2db8742c53053920393da3465495ad24ebc945b856f619e88b9a6b5c63358c1d888787604051808473ffffffffffffffffffffffffffffffffffffffff1673ffffffffffffffffffffffffffffffffffffffff1681526020018373ffffffffffffffffffffffffffffffffffffffff1673ffffffffffffffffffffffffffffffffffffffff168152602001828152602001935050505060405180910390a350505050505050565b600080600554905084156117ed5760006117e68885600660149054906101000a900461ffff166120a9565b9050809750505b60016040518061016001604052808381526020013373ffffffffffffffffffffffffffffffffffffffff1681526020018a73ffffffffffffffffffffffffffffffffffffffff1681526020018973ffffffffffffffffffffffffffffffffffffffff1681526020018873ffffffffffffffffffffffffffffffffffffffff16815260200160011515815260200187151581526020018681526020018581526020014281526020014281525090806001815401808255809150506001900390600052602060002090600902016000909190919091506000820151816000015560208201518160010160006101000a81548173ffffffffffffffffffffffffffffffffffffffff021916908373ffffffffffffffffffffffffffffffffffffffff16021790555060408201518160020160006101000a81548173ffffffffffffffffffffffffffffffffffffffff021916908373ffffffffffffffffffffffffffffffffffffffff16021790555060608201518160030160006101000a81548173ffffffffffffffffffffffffffffffffffffffff021916908373ffffffffffffffffffffffffffffffffffffffff16021790555060808201518160040160006101000a81548173ffffffffffffffffffffffffffffffffffffffff021916908373ffffffffffffffffffffffffffffffffffffffff16021790555060a08201518160040160146101000a81548160ff02191690831515021790555060c08201518160040160156101000a81548160ff02191690831515021790555060e082015181600501556101008201518160060155610120820151816007015561014082015181600801555050600360003373ffffffffffffffffffffffffffffffffffffffff1673ffffffffffffffffffffffffffffffffffffffff16815260200190815260200160002060008154809291906001019190505550336004600083815260200190815260200160002060006101000a81548173ffffffffffffffffffffffffffffffffffffffff021916908373ffffffffffffffffffffffffffffffffffffffff1602179055506005600081548092919060010191905055508773ffffffffffffffffffffffffffffffffffffffff163373ffffffffffffffffffffffffffffffffffffffff167ffeaabdce838d8b4b809d2d1065f022caf74dedc17c2c6ec49f658ecd9f540a37838a8a88604051808581526020018473ffffffffffffffffffffffffffffffffffffffff1673ffffffffffffffffffffffffffffffffffffffff1681526020018373ffffffffffffffffffffffffffffffffffffffff1673ffffffffffffffffffffffffffffffffffffffff16815260200182815260200194505050505060405180910390a3809150509695505050505050565b60008060009054906101000a900473ffffffffffffffffffffffffffffffffffffffff16905090565b600080670de0b6b3a7640000905080915050919050565b60026020528060005260406000206000915054906101000a900460ff1681565b6000611c546135cc565b73ffffffffffffffffffffffffffffffffffffffff166000809054906101000a900473ffffffffffffffffffffffffffffffffffffffff1673ffffffffffffffffffffffffffffffffffffffff1614611d15576040517f08c379a00000000000000000000000000000000000000000000000000000000081526004018080602001828103825260208152602001807f4f776e61626c653a2063616c6c6572206973206e6f7420746865206f776e657281525060200191505060405180910390fd5b81600760006101000a81548173ffffffffffffffffffffffffffffffffffffffff021916908373ffffffffffffffffffffffffffffffffffffffff160217905550600760009054906101000a900473ffffffffffffffffffffffffffffffffffffffff1673ffffffffffffffffffffffffffffffffffffffff16630261bf8b6040518163ffffffff1660e01b815260040160206040518083038186803b158015611dbe57600080fd5b505afa158015611dd2573d6000803e3d6000fd5b505050506040513d6020811015611de857600080fd5b8101908080519060200190929190505050600860006101000a81548173ffffffffffffffffffffffffffffffffffffffff021916908373ffffffffffffffffffffffffffffffffffffffff160217905550919050565b60018181548110611e4b57fe5b90600052602060002090600902016000915090508060000154908060010160009054906101000a900473ffffffffffffffffffffffffffffffffffffffff16908060020160009054906101000a900473ffffffffffffffffffffffffffffffffffffffff16908060030160009054906101000a900473ffffffffffffffffffffffffffffffffffffffff16908060040160009054906101000a900473ffffffffffffffffffffffffffffffffffffffff16908060040160149054906101000a900460ff16908060040160159054906101000a900460ff1690806005015490806006015490806007015490806008015490508b565b606080600360008473ffffffffffffffffffffffffffffffffffffffff1673ffffffffffffffffffffffffffffffffffffffff1681526020019081526020016000205467ffffffffffffffff81118015611f9857600080fd5b50604051908082528060200260200182016040528015611fc75781602001602082028036833780820191505090505b509050600080905060008090505b600180549050811015612078578473ffffffffffffffffffffffffffffffffffffffff166004600083815260200190815260200160002060009054906101000a900473ffffffffffffffffffffffffffffffffffffffff1673ffffffffffffffffffffffffffffffffffffffff16141561206b578083838151811061205657fe5b60200260200101818152505081806001019250505b8080600101915050611fd5565b508192505050919050565b600760009054906101000a900473ffffffffffffffffffffffffffffffffffffffff1681565b60008373ffffffffffffffffffffffffffffffffffffffff166323b872dd3330866040518463ffffffff1660e01b8152600401808473ffffffffffffffffffffffffffffffffffffffff1673ffffffffffffffffffffffffffffffffffffffff1681526020018373ffffffffffffffffffffffffffffffffffffffff1673ffffffffffffffffffffffffffffffffffffffff1681526020018281526020019350505050602060405180830381600087803b15801561216657600080fd5b505af115801561217a573d6000803e3d6000fd5b505050506040513d602081101561219057600080fd5b8101908080519060200190929190505050508373ffffffffffffffffffffffffffffffffffffffff1663095ea7b3600760009054906101000a900473ffffffffffffffffffffffffffffffffffffffff1673ffffffffffffffffffffffffffffffffffffffff1663ed6ff7606040518163ffffffff1660e01b815260040160206040518083038186803b15801561222657600080fd5b505afa15801561223a573d6000803e3d6000fd5b505050506040513d602081101561225057600080fd5b8101908080519060200190929190505050856040518363ffffffff1660e01b8152600401808373ffffffffffffffffffffffffffffffffffffffff1673ffffffffffffffffffffffffffffffffffffffff16815260200182815260200192505050602060405180830381600087803b1580156122cb57600080fd5b505af11580156122df573d6000803e3d6000fd5b505050506040513d60208110156122f557600080fd5b810190808051906020019092919050505050600860009054906101000a900473ffffffffffffffffffffffffffffffffffffffff1673ffffffffffffffffffffffffffffffffffffffff1663d2d0e0668585856040518463ffffffff1660e01b8152600401808473ffffffffffffffffffffffffffffffffffffffff1673ffffffffffffffffffffffffffffffffffffffff1681526020018381526020018261ffff1661ffff1681526020019350505050600060405180830381600087803b1580156123c057600080fd5b505af11580156123d4573d6000803e3d6000fd5b505050506000600860009054906101000a900473ffffffffffffffffffffffffffffffffffffffff1673ffffffffffffffffffffffffffffffffffffffff166335ea6a75866040518263ffffffff1660e01b8152600401808273ffffffffffffffffffffffffffffffffffffffff1673ffffffffffffffffffffffffffffffffffffffff1681526020019150506101a06040518083038186803b15801561247a57600080fd5b505afa15801561248e573d6000803e3d6000fd5b505050506040513d6101a08110156124a557600080fd5b8101908080519060200190929190805190602001909291908051906020019092919080519060200190929190805190602001909291908051906020019092919080519060200190929190805190602001909291908051906020019092919080519060200190929190805190602001909291908051906020019092919080519060200190929190505050909192939495969798999a9b50909192939495969798999a5090919293949596979899509091929394959697985090919293949596975090919293949596509091929394955090919293945090919293509091925090915050809150508073ffffffffffffffffffffffffffffffffffffffff1663095ea7b330866040518363ffffffff1660e01b8152600401808373ffffffffffffffffffffffffffffffffffffffff1673ffffffffffffffffffffffffffffffffffffffff16815260200182815260200192505050602060405180830381600087803b15801561261257600080fd5b505af1158015612626573d6000803e3d6000fd5b505050506040513d602081101561263c57600080fd5b81019080805190602001909291905050506126bf576040517f08c379a000000000000000000000000000000000000000000000000000000000815260040180806020018281038252600f8152602001807f4572726f7220617070726f76696e67000000000000000000000000000000000081525060200191505060405180910390fd5b8073ffffffffffffffffffffffffffffffffffffffff166323b872dd3033876040518463ffffffff1660e01b8152600401808473ffffffffffffffffffffffffffffffffffffffff1673ffffffffffffffffffffffffffffffffffffffff1681526020018373ffffffffffffffffffffffffffffffffffffffff1673ffffffffffffffffffffffffffffffffffffffff1681526020018281526020019350505050602060405180830381600087803b15801561277a57600080fd5b505af115801561278e573d6000803e3d6000fd5b505050506040513d60208110156127a457600080fd5b8101908080519060200190929190505050612827576040517f08c379a00000000000000000000000000000000000000000000000000000000081526004018080602001828103825260198152602001807f4572726f72207472616e7366657272696e6720746f6b656e730000000000000081525060200191505060405180910390fd5b809150509392505050565b60008273ffffffffffffffffffffffffffffffffffffffff166323b872dd3330856040518463ffffffff1660e01b8152600401808473ffffffffffffffffffffffffffffffffffffffff1673ffffffffffffffffffffffffffffffffffffffff1681526020018373ffffffffffffffffffffffffffffffffffffffff1673ffffffffffffffffffffffffffffffffffffffff1681526020018281526020019350505050602060405180830381600087803b1580156128ef57600080fd5b505af1158015612903573d6000803e3d6000fd5b505050506040513d602081101561291957600080fd5b8101908080519060200190929190505050508273ffffffffffffffffffffffffffffffffffffffff1663db006a75836040518263ffffffff1660e01b815260040180828152602001915050600060405180830381600087803b15801561297e57600080fd5b505af1158015612992573d6000803e3d6000fd5b5050505060008373ffffffffffffffffffffffffffffffffffffffff166389d1a0fc6040518163ffffffff1660e01b815260040160206040518083038186803b1580156129de57600080fd5b505afa1580156129f2573d6000803e3d6000fd5b505050506040513d6020811015612a0857600080fd5b810190808051906020019092919050505090508073ffffffffffffffffffffffffffffffffffffffff1663095ea7b330856040518363ffffffff1660e01b8152600401808373ffffffffffffffffffffffffffffffffffffffff1673ffffffffffffffffffffffffffffffffffffffff16815260200182815260200192505050602060405180830381600087803b158015612aa257600080fd5b505af1158015612ab6573d6000803e3d6000fd5b505050506040513d6020811015612acc57600080fd5b8101908080519060200190929190505050508073ffffffffffffffffffffffffffffffffffffffff166323b872dd3033866040518463ffffffff1660e01b8152600401808473ffffffffffffffffffffffffffffffffffffffff1673ffffffffffffffffffffffffffffffffffffffff1681526020018373ffffffffffffffffffffffffffffffffffffffff1673ffffffffffffffffffffffffffffffffffffffff1681526020018281526020019350505050602060405180830381600087803b158015612b9957600080fd5b505af1158015612bad573d6000803e3d6000fd5b505050506040513d6020811015612bc357600080fd5b8101908080519060200190929190505050508091505092915050565b600860009054906101000a900473ffffffffffffffffffffffffffffffffffffffff1681565b612c0d6136de565b60018281548110612c1a57fe5b906000526020600020906009020160405180610160016040529081600082015481526020016001820160009054906101000a900473ffffffffffffffffffffffffffffffffffffffff1673ffffffffffffffffffffffffffffffffffffffff1673ffffffffffffffffffffffffffffffffffffffff1681526020016002820160009054906101000a900473ffffffffffffffffffffffffffffffffffffffff1673ffffffffffffffffffffffffffffffffffffffff1673ffffffffffffffffffffffffffffffffffffffff1681526020016003820160009054906101000a900473ffffffffffffffffffffffffffffffffffffffff1673ffffffffffffffffffffffffffffffffffffffff1673ffffffffffffffffffffffffffffffffffffffff1681526020016004820160009054906101000a900473ffffffffffffffffffffffffffffffffffffffff1673ffffffffffffffffffffffffffffffffffffffff1673ffffffffffffffffffffffffffffffffffffffff1681526020016004820160149054906101000a900460ff161515151581526020016004820160159054906101000a900460ff1615151515815260200160058201548152602001600682015481526020016007820154815260200160088201548152505090506000816020015190506000612e0f836101000151611c13565b90508260c00151156130e557826060015173ffffffffffffffffffffffffffffffffffffffff166323b872dd83308661010001516040518463ffffffff1660e01b8152600401808473ffffffffffffffffffffffffffffffffffffffff1673ffffffffffffffffffffffffffffffffffffffff1681526020018373ffffffffffffffffffffffffffffffffffffffff1673ffffffffffffffffffffffffffffffffffffffff1681526020018281526020019350505050602060405180830381600087803b158015612edf57600080fd5b505af1158015612ef3573d6000803e3d6000fd5b505050506040513d6020811015612f0957600080fd5b810190808051906020019092919050505050826060015173ffffffffffffffffffffffffffffffffffffffff1663db006a758461010001516040518263ffffffff1660e01b815260040180828152602001915050600060405180830381600087803b158015612f7757600080fd5b505af1158015612f8b573d6000803e3d6000fd5b505050506000836060015173ffffffffffffffffffffffffffffffffffffffff166389d1a0fc6040518163ffffffff1660e01b815260040160206040518083038186803b158015612fdb57600080fd5b505afa158015612fef573d6000803e3d6000fd5b505050506040513d602081101561300557600080fd5b810190808051906020019092919050505090508073ffffffffffffffffffffffffffffffffffffffff1663095ea7b3308661010001516040518363ffffffff1660e01b8152600401808373ffffffffffffffffffffffffffffffffffffffff1673ffffffffffffffffffffffffffffffffffffffff16815260200182815260200192505050602060405180830381600087803b1580156130a457600080fd5b505af11580156130b8573d6000803e3d6000fd5b505050506040513d60208110156130ce57600080fd5b810190808051906020019092919050505050309250505b60006130ff828561010001516135d490919063ffffffff16565b90506131238385606001518660400151876080015185896101000151600a02611035565b836060015173ffffffffffffffffffffffffffffffffffffffff166323b872dd8433856040518463ffffffff1660e01b8152600401808473ffffffffffffffffffffffffffffffffffffffff1673ffffffffffffffffffffffffffffffffffffffff1681526020018373ffffffffffffffffffffffffffffffffffffffff1673ffffffffffffffffffffffffffffffffffffffff1681526020018281526020019350505050602060405180830381600087803b1580156131e257600080fd5b505af11580156131f6573d6000803e3d6000fd5b505050506040513d602081101561320c57600080fd5b8101908080519060200190929190505050505050505050565b6001818154811061323257fe5b906000526020600020906009020160010160009054906101000a900473ffffffffffffffffffffffffffffffffffffffff1673ffffffffffffffffffffffffffffffffffffffff163373ffffffffffffffffffffffffffffffffffffffff16146132e7576040517f08c379a00000000000000000000000000000000000000000000000000000000081526004018080602001828103825260238152602001806137bb6023913960400191505060405180910390fd5b600181815481106132f457fe5b906000526020600020906009020160040160149054906101000a900460ff1615613386576040517f08c379a00000000000000000000000000000000000000000000000000000000081526004018080602001828103825260138152602001807f506c616e20616c7265616479206163746976650000000000000000000000000081525060200191505060405180910390fd5b600180828154811061339457fe5b906000526020600020906009020160040160146101000a81548160ff02191690831515021790555050565b6133c76135cc565b73ffffffffffffffffffffffffffffffffffffffff166000809054906101000a900473ffffffffffffffffffffffffffffffffffffffff1673ffffffffffffffffffffffffffffffffffffffff1614613488576040517f08c379a00000000000000000000000000000000000000000000000000000000081526004018080602001828103825260208152602001807f4f776e61626c653a2063616c6c6572206973206e6f7420746865206f776e657281525060200191505060405180910390fd5b600073ffffffffffffffffffffffffffffffffffffffff168173ffffffffffffffffffffffffffffffffffffffff16141561350e576040517f08c379a00000000000000000000000000000000000000000000000000000000081526004018080602001828103825260268152602001806137956026913960400191505060405180910390fd5b8073ffffffffffffffffffffffffffffffffffffffff166000809054906101000a900473ffffffffffffffffffffffffffffffffffffffff1673ffffffffffffffffffffffffffffffffffffffff167f8be0079c531659141344cd1fd0a4f28419497f9722a3daafe3b4186f6b6457e060405160405180910390a3806000806101000a81548173ffffffffffffffffffffffffffffffffffffffff021916908373ffffffffffffffffffffffffffffffffffffffff16021790555050565b600033905090565b600061361683836040518060400160405280601e81526020017f536166654d6174683a207375627472616374696f6e206f766572666c6f77000081525061361e565b905092915050565b60008383111582906136cb576040517f08c379a00000000000000000000000000000000000000000000000000000000081526004018080602001828103825283818151815260200191508051906020019080838360005b83811015613690578082015181840152602081019050613675565b50505050905090810190601f1680156136bd5780820380516001836020036101000a031916815260200191505b509250505060405180910390fd5b5060008385039050809150509392505050565b60405180610160016040528060008152602001600073ffffffffffffffffffffffffffffffffffffffff168152602001600073ffffffffffffffffffffffffffffffffffffffff168152602001600073ffffffffffffffffffffffffffffffffffffffff168152602001600073ffffffffffffffffffffffffffffffffffffffff16815260200160001515815260200160001515815260200160008152602001600081526020016000815260200160008152509056fe4f776e61626c653a206e6577206f776e657220697320746865207a65726f20616464726573734e6f7420617574686f72697a656420746f206368616e676520534950207374617475735472616e73666572206f6620746f6b656e2066726f6d2075736572206163636f756e74206661696c6564a2646970667358221220c8b379827ccdfc708800bcfd2bd4da12e39a1f45857b49d9763e4a87f97a94eb64736f6c63430006080033",
  "immutableReferences": {},
  "source": "pragma solidity ^0.6.0;\n\n\nimport \"./KyberNetworkProxy.sol\";\nimport \"./ILendingPool.sol\";\nimport \"./ILendingPoolAddressesProvider.sol\";\nimport \"./ATokenInterface.sol\";\nimport \"@openzeppelin/contracts/token/ERC20/ERC20.sol\";\nimport \"@openzeppelin/contracts/access/Ownable.sol\";\nimport \"@openzeppelin/contracts/math/SafeMath.sol\";\n\n\ncontract CapitalETH is Ownable {\n\n    using SafeMath for uint256;\n\n    //Structure of the SIP Plan\n    struct Plan {\n\n        uint id;            //Unique ID of SIP\n\n        address payable srcAccount;         //Wallet address from where source token will be debited\n        address payable destAccount;        //Wallet address where the destination token will be deposited\n\n        address srcToken;           //Address of source Token (ERC20)\n        address destToken;          //Address of destination Token (ERC20)\n\n        bool isActive;              //Status of the investment plan\n        bool interestEnabled;       //Enabled if interest bearing ATokens is enabled\n        uint frequency;             //Time between installments\n        uint amount;                //Amount in Tokens to be deducted at every installment  (18 decimals)\n\n        uint createdAt;     //Timestamp when the plan was created\n        uint lastTx;        //Timestamp of the last transaction\n    }\n\n    //Array of SIPs to store all the SIPs\n    Plan[] public plans;\n\n    mapping(address => bool) public processors;        //Mapping of all valid SIP processors\n    mapping(address => uint) public userSIPCount;      //Mapping of Address to SIP count\n    mapping(uint => address) public idToAddress;       //Mapping of SIP id to user address\n\n    uint public totalSIPCount;\n\n    //Kyber Network Proxy contract address to swap tokens\n    KyberNetworkProxyInterface public kyberNetworkProxyContract;\n\n    //Aave Lending Pool contract Address\n    uint16 public aaveRef;\n    ILendingPoolAddressesProvider public aaveAddressProvider;\n    ILendingPool public aaveLendingPool;\n\n    //Events\n    event newSIPCreated(\n        uint id,\n        address indexed srcAccount,\n        address indexed destAccount,\n        address srcToken,\n        address destToken,\n        uint amount\n    );\n\n    // SIPUpdated();\n    // installmentReceived();\n    event updateKyberNetworkProxyContract(\n        address indexed oldAddress, \n        address indexed newContractAddress\n    );\n\n    event tokensSwapped(\n        address indexed srcAccount,\n        ERC20 srcToken,\n        address indexed destAccount,\n        ERC20 destToken,\n        uint srcQty\n    );\n\n    receive() external payable { }\n    fallback() external payable { }\n\n    constructor() public {\n        processors[msg.sender] = true;\n        totalSIPCount = 0;\n    }\n\n    function createSIP(\n        address payable destAccount,\n        address srcToken,\n        address destToken,\n        bool interestEnabled,\n        uint frequency,\n        uint amount\n    ) \n        public \n        returns (uint)\n    {\n        uint planId = totalSIPCount;\n\n        if (interestEnabled) {\n            //Get ATokens for srcToken and transfer them to user address\n            address aTokenAddress = getInterestBearingATokens(\n                srcToken,\n                amount,\n                aaveRef\n            );\n            srcToken = aTokenAddress;\n        }\n\n        plans.push(Plan(\n            planId,\n            msg.sender,\n            destAccount, \n            srcToken, \n            destToken,\n            true,\n            interestEnabled,\n            frequency,\n            amount,\n            now,\n            now\n        ));\n\n        userSIPCount[msg.sender]++;\n        idToAddress[planId] = msg.sender;\n        totalSIPCount++;\n\n        emit newSIPCreated(\n            planId,\n            msg.sender,\n            destAccount,\n            srcToken,\n            destToken,\n            amount\n        );\n        return planId;\n    }\n\n    // function processMultipleSIPs(uint[] memory planIDs) public {\n\n    //     //Check if msg.sender is a valid processor\n    //     require(processors[msg.sender], \"Only valid processors can trigger installments\");\n\n    //     for(uint i = 0; i < planIDs.length; i++ ) {\n    //         Plan memory userPlan = plans[i];\n    //         executeSwap( ERC20(userPlan.srcToken),\n    //                      userPlan.amount,\n    //                      ERC20(userPlan.destToken),\n    //                      userPlan.destAccount,\n    //                     1e18);\n    //     }\n    // }\n\n    function processSingleSIP(uint sipID) public {\n        // require(processors[msg.sender], \"Only valid processors can trigger installments\");\n\n        Plan memory userPlan = plans[sipID];\n        address srcAccount = userPlan.srcAccount;\n        uint processorFee = calculateProcessorFee(userPlan.amount);\n\n        //Check if interesEnabled\n        if (userPlan.interestEnabled) {\n\n            ERC20(userPlan.srcToken).transferFrom(\n                srcAccount,\n                address(this),\n                userPlan.amount\n            );       \n            //Redeem underlying tokens. The underlying token is transferred to this contract\n            AToken(userPlan.srcToken).redeem(userPlan.amount);\n\n            //Get underlying token address\n            address underlyingToken = AToken(userPlan.srcToken).underlyingAssetAddress();\n            ERC20(underlyingToken).approve(address(this), userPlan.amount);\n            srcAccount = address(this);            \n        }\n\n        uint finalAmount = (userPlan.amount).sub(processorFee);\n\n        swapTokensUsingKyber(\n            srcAccount,\n            ERC20(userPlan.srcToken),\n            userPlan.destAccount,\n            ERC20(userPlan.destToken),\n            finalAmount,\n            10 * userPlan.amount\n        );\n\n        ERC20(userPlan.srcToken).transferFrom(srcAccount, msg.sender, processorFee);\n    }\n\n    function pauseSIP(uint id) public {\n        require(msg.sender == plans[id].srcAccount, \"Not authorized to change SIP status\");\n        require(plans[id].isActive, \"Plan not active\");\n        plans[id].isActive = false;\n    }\n\n    function resumeSIP(uint id) public {\n        require(msg.sender == plans[id].srcAccount, \"Not authorized to change SIP status\");\n        require(!plans[id].isActive, \"Plan already active\");\n        plans[id].isActive = true;\n    }\n\n    function calculateProcessorFee(uint amount) public returns (uint) {\n        uint processorFee = 1e18;\n        return processorFee;\n    }\n\n    function getPlansByAddress(\n        address srcAddress\n    )\n        public\n        view\n        returns (uint[] memory) \n    {\n        uint[] memory result = new uint[](userSIPCount[srcAddress]);\n        uint index = 0;\n        for (uint i = 0; i < plans.length; i++) {\n            if (idToAddress[i] == srcAddress) {\n                result[index] = i;\n                index++;\n            }\n        }\n        return result;\n    }\n\n/*\n*******************************************************************************\n* Kyber Network contract functions\n/******************************************************************************\n*/\n    function setKyberNetworkProxyContract(\n        address newContractAddress\n    )\n        public\n        onlyOwner\n        returns (bool)\n    {\n        address oldAddress = address(kyberNetworkProxyContract);\n        kyberNetworkProxyContract = KyberNetworkProxyInterface(newContractAddress);\n        return true;\n        emit updateKyberNetworkProxyContract(oldAddress, newContractAddress);\n    }\n\n    function swapTokensUsingKyber(\n        address srcAccount,\n        ERC20 srcToken,\n        address destAccount,\n        ERC20 destToken,\n        uint srcQty,\n        uint maxDestAmount\n    )\n        public\n    {\n        uint minConversionRate;\n        require(srcToken.transferFrom(\n            srcAccount,\n            address(this),\n            srcQty),\n            \"Transfer of token from user account failed\"\n        );\n\n        // Mitigate ERC20 Approve front-running attack, by initially setting allowance to 0\n        require(srcToken.approve(address(kyberNetworkProxyContract), 0), \"Error approving allowance\");\n        require(srcToken.approve(address(kyberNetworkProxyContract), srcQty), \"Error approving allowance\");\n\n        // Get the minimum conversion rate\n        (minConversionRate,) = kyberNetworkProxyContract.getExpectedRate(srcToken, destToken, srcQty);\n\n        // Swap the ERC20 token and send to destAddress\n        kyberNetworkProxyContract.trade(\n            srcToken,\n            srcQty,\n            destToken,\n            destAccount,\n            maxDestAmount,\n            minConversionRate,\n            address(0)\n        );\n\n        // Log the event\n        emit tokensSwapped(srcAccount, srcToken, destAccount, destToken, srcQty);\n    }\n\n/*\n*******************************************************************************\n* Aave contract functions\n/******************************************************************************\n*/\n    function setAaveAddress(\n        address lendingPoolAddressProvider\n    )\n        public\n        onlyOwner\n        returns (bool)\n    {\n        aaveAddressProvider = ILendingPoolAddressesProvider(lendingPoolAddressProvider);\n        aaveLendingPool = ILendingPool(aaveAddressProvider.getLendingPool());\n    }\n\n    function getInterestBearingATokens(\n        address srcToken,\n        uint amount,\n        uint16 ref\n    ) \n        public\n        returns (address)\n    {\n        //Transfer source token from user to this contract\n        ERC20(srcToken).transferFrom(msg.sender, address(this), amount);\n\n        ERC20(srcToken).approve(aaveAddressProvider.getLendingPoolCore(), amount);\n\n        //Deposits the source Tokens from contract and returns aTokens\n        aaveLendingPool.deposit(srcToken, amount, ref);\n\n        address aTokenAddress;\n\n        //Get the aToken Address\n        (, , , , , , , , , , , aTokenAddress, ) = aaveLendingPool.getReserveData(srcToken);\n\n        require(ERC20(aTokenAddress).approve(address(this), amount), \"Error approving\");\n        require(ERC20(aTokenAddress).transferFrom(address(this), msg.sender, amount), \"Error transferring tokens\");\n\n        return aTokenAddress;\n    }\n\n    function getUnderlyingToken(\n        address aTokenAddress,\n        uint amount\n    )\n        public\n        returns (address)\n    {\n        ERC20(aTokenAddress).transferFrom(msg.sender, address(this), amount);\n\n        //Redeem underlying tokens. The underlying token is transferred to this contract\n        AToken(aTokenAddress).redeem(amount);\n\n        //Get underlying token address\n        address underlyingToken = AToken(aTokenAddress).underlyingAssetAddress();\n        ERC20(underlyingToken).approve(address(this), amount);\n        ERC20(underlyingToken).transferFrom(address(this), msg.sender, amount);\n        return underlyingToken;\n    }\n}",
  "sourcePath": "/home/sudeep/projects/capitalETH/contracts/CapitalETH.sol",
  "compiler": {
    "name": "solc",
    "version": "0.6.8+commit.0bbfe453.Emscripten.clang"
  },
  "schemaVersion": "3.1.0",
  "updatedAt": "2020-05-22T22:04:01.512Z",
  "networkType": "ethereum",
  "devdoc": {
    "methods": {
      "owner()": {
        "details": "Returns the address of the current owner."
      },
      "renounceOwnership()": {
        "details": "Leaves the contract without owner. It will not be possible to call `onlyOwner` functions anymore. Can only be called by the current owner.     * NOTE: Renouncing ownership will leave the contract without an owner, thereby removing any functionality that is only available to the owner."
      },
      "transferOwnership(address)": {
        "details": "Transfers ownership of the contract to a new account (`newOwner`). Can only be called by the current owner."
      }
    }
  },
  "userdoc": {
    "methods": {}
  }
}