{
  "contractName": "CapitalETH",
  "abi": [
    {
      "inputs": [],
      "stateMutability": "nonpayable",
      "type": "constructor"
    },
    {
      "anonymous": false,
      "inputs": [
        {
          "indexed": false,
          "internalType": "uint256",
          "name": "id",
          "type": "uint256"
        },
        {
          "indexed": true,
          "internalType": "address",
          "name": "srcAccount",
          "type": "address"
        }
      ],
      "name": "newSIPCreated",
      "type": "event"
    },
    {
      "anonymous": false,
      "inputs": [
        {
          "indexed": true,
          "internalType": "address",
          "name": "srcAccount",
          "type": "address"
        },
        {
          "indexed": false,
          "internalType": "contract ERC20",
          "name": "srcToken",
          "type": "address"
        },
        {
          "indexed": true,
          "internalType": "address",
          "name": "destAccount",
          "type": "address"
        },
        {
          "indexed": false,
          "internalType": "contract ERC20",
          "name": "destToken",
          "type": "address"
        },
        {
          "indexed": false,
          "internalType": "uint256",
          "name": "srcQty",
          "type": "uint256"
        }
      ],
      "name": "tokensSwapped",
      "type": "event"
    },
    {
      "anonymous": false,
      "inputs": [
        {
          "indexed": true,
          "internalType": "address",
          "name": "oldAddress",
          "type": "address"
        },
        {
          "indexed": true,
          "internalType": "address",
          "name": "newContractAddress",
          "type": "address"
        }
      ],
      "name": "updateKyberNetworkProxyContract",
      "type": "event"
    },
    {
      "stateMutability": "payable",
      "type": "fallback"
    },
    {
      "inputs": [],
      "name": "aaveAddressProvider",
      "outputs": [
        {
          "internalType": "contract ILendingPoolAddressesProvider",
          "name": "",
          "type": "address"
        }
      ],
      "stateMutability": "view",
      "type": "function"
    },
    {
      "inputs": [],
      "name": "aaveLendingPool",
      "outputs": [
        {
          "internalType": "contract ILendingPool",
          "name": "",
          "type": "address"
        }
      ],
      "stateMutability": "view",
      "type": "function"
    },
    {
      "inputs": [],
      "name": "aaveRef",
      "outputs": [
        {
          "internalType": "uint16",
          "name": "",
          "type": "uint16"
        }
      ],
      "stateMutability": "view",
      "type": "function"
    },
    {
      "inputs": [
        {
          "internalType": "uint256",
          "name": "",
          "type": "uint256"
        }
      ],
      "name": "idToAddress",
      "outputs": [
        {
          "internalType": "address",
          "name": "",
          "type": "address"
        }
      ],
      "stateMutability": "view",
      "type": "function"
    },
    {
      "inputs": [],
      "name": "kyberNetworkProxyContract",
      "outputs": [
        {
          "internalType": "contract KyberNetworkProxyInterface",
          "name": "",
          "type": "address"
        }
      ],
      "stateMutability": "view",
      "type": "function"
    },
    {
      "inputs": [],
      "name": "owner",
      "outputs": [
        {
          "internalType": "address payable",
          "name": "",
          "type": "address"
        }
      ],
      "stateMutability": "view",
      "type": "function"
    },
    {
      "inputs": [
        {
          "internalType": "uint256",
          "name": "",
          "type": "uint256"
        }
      ],
      "name": "plans",
      "outputs": [
        {
          "internalType": "uint256",
          "name": "id",
          "type": "uint256"
        },
        {
          "internalType": "address payable",
          "name": "srcAccount",
          "type": "address"
        },
        {
          "internalType": "address payable",
          "name": "destAccount",
          "type": "address"
        },
        {
          "internalType": "address",
          "name": "srcToken",
          "type": "address"
        },
        {
          "internalType": "address",
          "name": "destToken",
          "type": "address"
        },
        {
          "internalType": "uint256",
          "name": "period",
          "type": "uint256"
        },
        {
          "internalType": "enum CapitalETH.Status",
          "name": "status",
          "type": "uint8"
        },
        {
          "internalType": "uint256",
          "name": "amount",
          "type": "uint256"
        },
        {
          "internalType": "uint256",
          "name": "lastTx",
          "type": "uint256"
        }
      ],
      "stateMutability": "view",
      "type": "function"
    },
    {
      "inputs": [
        {
          "internalType": "address",
          "name": "",
          "type": "address"
        }
      ],
      "name": "processors",
      "outputs": [
        {
          "internalType": "bool",
          "name": "",
          "type": "bool"
        }
      ],
      "stateMutability": "view",
      "type": "function"
    },
    {
      "inputs": [],
      "name": "totalSIPCount",
      "outputs": [
        {
          "internalType": "uint256",
          "name": "",
          "type": "uint256"
        }
      ],
      "stateMutability": "view",
      "type": "function"
    },
    {
      "inputs": [
        {
          "internalType": "address",
          "name": "",
          "type": "address"
        }
      ],
      "name": "userSIPCount",
      "outputs": [
        {
          "internalType": "uint256",
          "name": "",
          "type": "uint256"
        }
      ],
      "stateMutability": "view",
      "type": "function"
    },
    {
      "stateMutability": "payable",
      "type": "receive"
    },
    {
      "inputs": [
        {
          "internalType": "address payable",
          "name": "srcAccount",
          "type": "address"
        },
        {
          "internalType": "address payable",
          "name": "destAccount",
          "type": "address"
        },
        {
          "internalType": "address",
          "name": "srcToken",
          "type": "address"
        },
        {
          "internalType": "address",
          "name": "destToken",
          "type": "address"
        },
        {
          "internalType": "uint256",
          "name": "period",
          "type": "uint256"
        },
        {
          "internalType": "uint256",
          "name": "amount",
          "type": "uint256"
        }
      ],
      "name": "createSIP",
      "outputs": [
        {
          "internalType": "uint256",
          "name": "",
          "type": "uint256"
        }
      ],
      "stateMutability": "nonpayable",
      "type": "function"
    },
    {
      "inputs": [
        {
          "internalType": "uint256",
          "name": "sipID",
          "type": "uint256"
        }
      ],
      "name": "processSingleSIP",
      "outputs": [],
      "stateMutability": "nonpayable",
      "type": "function"
    },
    {
      "inputs": [
        {
          "internalType": "uint256",
          "name": "id",
          "type": "uint256"
        }
      ],
      "name": "pauseSIP",
      "outputs": [
        {
          "internalType": "bool",
          "name": "",
          "type": "bool"
        }
      ],
      "stateMutability": "nonpayable",
      "type": "function"
    },
    {
      "inputs": [
        {
          "internalType": "address",
          "name": "srcAddress",
          "type": "address"
        }
      ],
      "name": "getPlansByAddress",
      "outputs": [
        {
          "internalType": "uint256[]",
          "name": "",
          "type": "uint256[]"
        }
      ],
      "stateMutability": "view",
      "type": "function"
    },
    {
      "inputs": [
        {
          "internalType": "address",
          "name": "newContractAddress",
          "type": "address"
        }
      ],
      "name": "setKyberNetworkProxyContract",
      "outputs": [
        {
          "internalType": "bool",
          "name": "",
          "type": "bool"
        }
      ],
      "stateMutability": "nonpayable",
      "type": "function"
    },
    {
      "inputs": [
        {
          "internalType": "address",
          "name": "srcAccount",
          "type": "address"
        },
        {
          "internalType": "contract ERC20",
          "name": "srcToken",
          "type": "address"
        },
        {
          "internalType": "address",
          "name": "destAccount",
          "type": "address"
        },
        {
          "internalType": "contract ERC20",
          "name": "destToken",
          "type": "address"
        },
        {
          "internalType": "uint256",
          "name": "srcQty",
          "type": "uint256"
        },
        {
          "internalType": "uint256",
          "name": "maxDestAmount",
          "type": "uint256"
        }
      ],
      "name": "swapTokensUsingKyber",
      "outputs": [],
      "stateMutability": "nonpayable",
      "type": "function"
    },
    {
      "inputs": [
        {
          "internalType": "address",
          "name": "lendingPoolAddressProvider",
          "type": "address"
        }
      ],
      "name": "setAaveAddress",
      "outputs": [
        {
          "internalType": "bool",
          "name": "",
          "type": "bool"
        }
      ],
      "stateMutability": "nonpayable",
      "type": "function"
    },
    {
      "inputs": [
        {
          "internalType": "address",
          "name": "srcToken",
          "type": "address"
        },
        {
          "internalType": "uint256",
          "name": "amount",
          "type": "uint256"
        },
        {
          "internalType": "uint16",
          "name": "ref",
          "type": "uint16"
        }
      ],
      "name": "getInterestBearingATokens",
      "outputs": [
        {
          "internalType": "bool",
          "name": "",
          "type": "bool"
        }
      ],
      "stateMutability": "nonpayable",
      "type": "function"
    },
    {
      "inputs": [
        {
          "internalType": "address",
          "name": "aTokenAddress",
          "type": "address"
        },
        {
          "internalType": "uint256",
          "name": "amount",
          "type": "uint256"
        }
      ],
      "name": "getUnderlyingToken",
      "outputs": [
        {
          "internalType": "bool",
          "name": "",
          "type": "bool"
        }
      ],
      "stateMutability": "nonpayable",
      "type": "function"
    }
  ],
  "bytecode": "0x608060405234801561001057600080fd5b50336000806101000a81548173ffffffffffffffffffffffffffffffffffffffff021916908373ffffffffffffffffffffffffffffffffffffffff16021790555060018060008060009054906101000a900473ffffffffffffffffffffffffffffffffffffffff1673ffffffffffffffffffffffffffffffffffffffff1673ffffffffffffffffffffffffffffffffffffffff16815260200190815260200160002060006101000a81548160ff0219169083151502179055506000600481905550612b2f806100e06000396000f3fe6080604052600436106101185760003560e01c80638da5cb5b116100a0578063cdaabe4111610064578063cdaabe4114610824578063db6b377e1461087b578063e17549ed146108fc578063e9d337b81461096f578063eb0097be146109c65761011f565b80638da5cb5b14610510578063965e064a14610567578063b1035aa4146105d0578063b162061614610639578063bc9889a91461077e5761011f565b8063401a7da2116100e7578063401a7da214610343578063553b9c8a1461039657806365639132146103c1578063785250da146103f45780638308452b1461044b5761011f565b806324719414146101215780632a2d0c47146101fa5780633ac13589146102755780633f19d6f0146102da5761011f565b3661011f57005b005b34801561012d57600080fd5b506101e4600480360360c081101561014457600080fd5b81019080803573ffffffffffffffffffffffffffffffffffffffff169060200190929190803573ffffffffffffffffffffffffffffffffffffffff169060200190929190803573ffffffffffffffffffffffffffffffffffffffff169060200190929190803573ffffffffffffffffffffffffffffffffffffffff1690602001909291908035906020019092919080359060200190929190505050610a01565b6040518082815260200191505060405180910390f35b34801561020657600080fd5b506102336004803603602081101561021d57600080fd5b8101908080359060200190929190505050610d54565b604051808273ffffffffffffffffffffffffffffffffffffffff1673ffffffffffffffffffffffffffffffffffffffff16815260200191505060405180910390f35b34801561028157600080fd5b506102c46004803603602081101561029857600080fd5b81019080803573ffffffffffffffffffffffffffffffffffffffff169060200190929190505050610d87565b6040518082815260200191505060405180910390f35b3480156102e657600080fd5b50610329600480360360208110156102fd57600080fd5b81019080803573ffffffffffffffffffffffffffffffffffffffff169060200190929190505050610d9f565b604051808215151515815260200191505060405180910390f35b34801561034f57600080fd5b5061037c6004803603602081101561036657600080fd5b8101908080359060200190929190505050610f0e565b604051808215151515815260200191505060405180910390f35b3480156103a257600080fd5b506103ab6110ce565b6040518082815260200191505060405180910390f35b3480156103cd57600080fd5b506103d66110d4565b604051808261ffff1661ffff16815260200191505060405180910390f35b34801561040057600080fd5b506104096110e8565b604051808273ffffffffffffffffffffffffffffffffffffffff1673ffffffffffffffffffffffffffffffffffffffff16815260200191505060405180910390f35b34801561045757600080fd5b5061050e600480360360c081101561046e57600080fd5b81019080803573ffffffffffffffffffffffffffffffffffffffff169060200190929190803573ffffffffffffffffffffffffffffffffffffffff169060200190929190803573ffffffffffffffffffffffffffffffffffffffff169060200190929190803573ffffffffffffffffffffffffffffffffffffffff169060200190929190803590602001909291908035906020019092919050505061110e565b005b34801561051c57600080fd5b506105256118b4565b604051808273ffffffffffffffffffffffffffffffffffffffff1673ffffffffffffffffffffffffffffffffffffffff16815260200191505060405180910390f35b34801561057357600080fd5b506105b66004803603602081101561058a57600080fd5b81019080803573ffffffffffffffffffffffffffffffffffffffff1690602001909291905050506118d9565b604051808215151515815260200191505060405180910390f35b3480156105dc57600080fd5b5061061f600480360360208110156105f357600080fd5b81019080803573ffffffffffffffffffffffffffffffffffffffff1690602001909291905050506118f9565b604051808215151515815260200191505060405180910390f35b34801561064557600080fd5b506106726004803603602081101561065c57600080fd5b8101908080359060200190929190505050611a24565b604051808a81526020018973ffffffffffffffffffffffffffffffffffffffff1673ffffffffffffffffffffffffffffffffffffffff1681526020018873ffffffffffffffffffffffffffffffffffffffff1673ffffffffffffffffffffffffffffffffffffffff1681526020018773ffffffffffffffffffffffffffffffffffffffff1673ffffffffffffffffffffffffffffffffffffffff1681526020018673ffffffffffffffffffffffffffffffffffffffff1673ffffffffffffffffffffffffffffffffffffffff16815260200185815260200184600181111561075657fe5b60ff168152602001838152602001828152602001995050505050505050505060405180910390f35b34801561078a57600080fd5b506107cd600480360360208110156107a157600080fd5b81019080803573ffffffffffffffffffffffffffffffffffffffff169060200190929190505050611b0c565b6040518080602001828103825283818151815260200191508051906020019060200280838360005b838110156108105780820151818401526020810190506107f5565b505050509050019250505060405180910390f35b34801561083057600080fd5b50610839611c50565b604051808273ffffffffffffffffffffffffffffffffffffffff1673ffffffffffffffffffffffffffffffffffffffff16815260200191505060405180910390f35b34801561088757600080fd5b506108e26004803603606081101561089e57600080fd5b81019080803573ffffffffffffffffffffffffffffffffffffffff16906020019092919080359060200190929190803561ffff169060200190929190505050611c76565b604051808215151515815260200191505060405180910390f35b34801561090857600080fd5b506109556004803603604081101561091f57600080fd5b81019080803573ffffffffffffffffffffffffffffffffffffffff169060200190929190803590602001909291905050506123fc565b604051808215151515815260200191505060405180910390f35b34801561097b57600080fd5b506109846127a6565b604051808273ffffffffffffffffffffffffffffffffffffffff1673ffffffffffffffffffffffffffffffffffffffff16815260200191505060405180910390f35b3480156109d257600080fd5b506109ff600480360360208110156109e957600080fd5b81019080803590602001909291905050506127cc565b005b600080600454905060056040518061012001604052808381526020018a73ffffffffffffffffffffffffffffffffffffffff1681526020018973ffffffffffffffffffffffffffffffffffffffff1681526020018873ffffffffffffffffffffffffffffffffffffffff1681526020018773ffffffffffffffffffffffffffffffffffffffff16815260200186815260200160006001811115610aa057fe5b81526020018581526020014281525090806001815401808255809150506001900390600052602060002090600902016000909190919091506000820151816000015560208201518160010160006101000a81548173ffffffffffffffffffffffffffffffffffffffff021916908373ffffffffffffffffffffffffffffffffffffffff16021790555060408201518160020160006101000a81548173ffffffffffffffffffffffffffffffffffffffff021916908373ffffffffffffffffffffffffffffffffffffffff16021790555060608201518160030160006101000a81548173ffffffffffffffffffffffffffffffffffffffff021916908373ffffffffffffffffffffffffffffffffffffffff16021790555060808201518160040160006101000a81548173ffffffffffffffffffffffffffffffffffffffff021916908373ffffffffffffffffffffffffffffffffffffffff16021790555060a0820151816005015560c08201518160060160006101000a81548160ff02191690836001811115610c2c57fe5b021790555060e0820151816007015561010082015181600801555050600260008973ffffffffffffffffffffffffffffffffffffffff1673ffffffffffffffffffffffffffffffffffffffff16815260200190815260200160002060008154809291906001019190505550876003600083815260200190815260200160002060006101000a81548173ffffffffffffffffffffffffffffffffffffffff021916908373ffffffffffffffffffffffffffffffffffffffff1602179055506004600081548092919060010191905055508773ffffffffffffffffffffffffffffffffffffffff167f7b08f9aeb6e6ab8650d6883d1bc7dd4380158a37c5a9156b06bfb7e874aefe05826040518082815260200191505060405180910390a2509695505050505050565b60036020528060005260406000206000915054906101000a900473ffffffffffffffffffffffffffffffffffffffff1681565b60026020528060005260406000206000915090505481565b60008060009054906101000a900473ffffffffffffffffffffffffffffffffffffffff1673ffffffffffffffffffffffffffffffffffffffff163373ffffffffffffffffffffffffffffffffffffffff1614610e46576040517f08c379a0000000000000000000000000000000000000000000000000000000008152600401808060200182810382526024815260200180612aac6024913960400191505060405180910390fd5b6000600660009054906101000a900473ffffffffffffffffffffffffffffffffffffffff16905082600660006101000a81548173ffffffffffffffffffffffffffffffffffffffff021916908373ffffffffffffffffffffffffffffffffffffffff1602179055508273ffffffffffffffffffffffffffffffffffffffff168173ffffffffffffffffffffffffffffffffffffffff167f45d2e5558338aa15dc4b08f360804459b86dd441ea705d11d2286dd08539979660405160405180910390a350919050565b600060058281548110610f1d57fe5b906000526020600020906009020160010160009054906101000a900473ffffffffffffffffffffffffffffffffffffffff1673ffffffffffffffffffffffffffffffffffffffff163373ffffffffffffffffffffffffffffffffffffffff1614610fd2576040517f08c379a0000000000000000000000000000000000000000000000000000000008152600401808060200182810382526023815260200180612a896023913960400191505060405180910390fd5b60006001811115610fdf57fe5b60058381548110610fec57fe5b906000526020600020906009020160060160009054906101000a900460ff16600181111561101657fe5b14611089576040517f08c379a000000000000000000000000000000000000000000000000000000000815260040180806020018281038252600f8152602001807f506c616e206e6f7420616374697665000000000000000000000000000000000081525060200191505060405180910390fd5b60016005838154811061109857fe5b906000526020600020906009020160060160006101000a81548160ff021916908360018111156110c457fe5b0217905550919050565b60045481565b600660149054906101000a900461ffff1681565b600660009054906101000a900473ffffffffffffffffffffffffffffffffffffffff1681565b60008573ffffffffffffffffffffffffffffffffffffffff166323b872dd8830866040518463ffffffff1660e01b8152600401808473ffffffffffffffffffffffffffffffffffffffff1673ffffffffffffffffffffffffffffffffffffffff1681526020018373ffffffffffffffffffffffffffffffffffffffff1673ffffffffffffffffffffffffffffffffffffffff1681526020018281526020019350505050602060405180830381600087803b1580156111cb57600080fd5b505af11580156111df573d6000803e3d6000fd5b505050506040513d60208110156111f557600080fd5b810190808051906020019092919050505061125b576040517f08c379a000000000000000000000000000000000000000000000000000000000815260040180806020018281038252602a815260200180612ad0602a913960400191505060405180910390fd5b8573ffffffffffffffffffffffffffffffffffffffff1663095ea7b3600660009054906101000a900473ffffffffffffffffffffffffffffffffffffffff1660006040518363ffffffff1660e01b8152600401808373ffffffffffffffffffffffffffffffffffffffff1673ffffffffffffffffffffffffffffffffffffffff16815260200182815260200192505050602060405180830381600087803b15801561130557600080fd5b505af1158015611319573d6000803e3d6000fd5b505050506040513d602081101561132f57600080fd5b81019080805190602001909291905050506113b2576040517f08c379a00000000000000000000000000000000000000000000000000000000081526004018080602001828103825260198152602001807f4572726f7220617070726f76696e6720616c6c6f77616e63650000000000000081525060200191505060405180910390fd5b8573ffffffffffffffffffffffffffffffffffffffff1663095ea7b3600660009054906101000a900473ffffffffffffffffffffffffffffffffffffffff16856040518363ffffffff1660e01b8152600401808373ffffffffffffffffffffffffffffffffffffffff1673ffffffffffffffffffffffffffffffffffffffff16815260200182815260200192505050602060405180830381600087803b15801561145b57600080fd5b505af115801561146f573d6000803e3d6000fd5b505050506040513d602081101561148557600080fd5b8101908080519060200190929190505050611508576040517f08c379a00000000000000000000000000000000000000000000000000000000081526004018080602001828103825260198152602001807f4572726f7220617070726f76696e6720616c6c6f77616e63650000000000000081525060200191505060405180910390fd5b600660009054906101000a900473ffffffffffffffffffffffffffffffffffffffff1673ffffffffffffffffffffffffffffffffffffffff1663809a9e558786866040518463ffffffff1660e01b8152600401808473ffffffffffffffffffffffffffffffffffffffff1673ffffffffffffffffffffffffffffffffffffffff1681526020018373ffffffffffffffffffffffffffffffffffffffff1673ffffffffffffffffffffffffffffffffffffffff1681526020018281526020019350505050604080518083038186803b1580156115e257600080fd5b505afa1580156115f6573d6000803e3d6000fd5b505050506040513d604081101561160c57600080fd5b8101908080519060200190929190805190602001909291905050505080915050600660009054906101000a900473ffffffffffffffffffffffffffffffffffffffff1673ffffffffffffffffffffffffffffffffffffffff1663cb3c28c78785878987876000809054906101000a900473ffffffffffffffffffffffffffffffffffffffff166040518863ffffffff1660e01b8152600401808873ffffffffffffffffffffffffffffffffffffffff1673ffffffffffffffffffffffffffffffffffffffff1681526020018781526020018673ffffffffffffffffffffffffffffffffffffffff1673ffffffffffffffffffffffffffffffffffffffff1681526020018573ffffffffffffffffffffffffffffffffffffffff1673ffffffffffffffffffffffffffffffffffffffff1681526020018481526020018381526020018273ffffffffffffffffffffffffffffffffffffffff1673ffffffffffffffffffffffffffffffffffffffff168152602001975050505050505050602060405180830381600087803b1580156117a257600080fd5b505af11580156117b6573d6000803e3d6000fd5b505050506040513d60208110156117cc57600080fd5b8101908080519060200190929190505050508473ffffffffffffffffffffffffffffffffffffffff168773ffffffffffffffffffffffffffffffffffffffff167f2db8742c53053920393da3465495ad24ebc945b856f619e88b9a6b5c63358c1d888787604051808473ffffffffffffffffffffffffffffffffffffffff1673ffffffffffffffffffffffffffffffffffffffff1681526020018373ffffffffffffffffffffffffffffffffffffffff1673ffffffffffffffffffffffffffffffffffffffff168152602001828152602001935050505060405180910390a350505050505050565b6000809054906101000a900473ffffffffffffffffffffffffffffffffffffffff1681565b60016020528060005260406000206000915054906101000a900460ff1681565b600081600760006101000a81548173ffffffffffffffffffffffffffffffffffffffff021916908373ffffffffffffffffffffffffffffffffffffffff160217905550600760009054906101000a900473ffffffffffffffffffffffffffffffffffffffff1673ffffffffffffffffffffffffffffffffffffffff16630261bf8b6040518163ffffffff1660e01b815260040160206040518083038186803b1580156119a457600080fd5b505afa1580156119b8573d6000803e3d6000fd5b505050506040513d60208110156119ce57600080fd5b8101908080519060200190929190505050600860006101000a81548173ffffffffffffffffffffffffffffffffffffffff021916908373ffffffffffffffffffffffffffffffffffffffff160217905550919050565b60058181548110611a3157fe5b90600052602060002090600902016000915090508060000154908060010160009054906101000a900473ffffffffffffffffffffffffffffffffffffffff16908060020160009054906101000a900473ffffffffffffffffffffffffffffffffffffffff16908060030160009054906101000a900473ffffffffffffffffffffffffffffffffffffffff16908060040160009054906101000a900473ffffffffffffffffffffffffffffffffffffffff16908060050154908060060160009054906101000a900460ff16908060070154908060080154905089565b606080600260008473ffffffffffffffffffffffffffffffffffffffff1673ffffffffffffffffffffffffffffffffffffffff1681526020019081526020016000205467ffffffffffffffff81118015611b6557600080fd5b50604051908082528060200260200182016040528015611b945781602001602082028036833780820191505090505b509050600080905060008090505b600580549050811015611c45578473ffffffffffffffffffffffffffffffffffffffff166003600083815260200190815260200160002060009054906101000a900473ffffffffffffffffffffffffffffffffffffffff1673ffffffffffffffffffffffffffffffffffffffff161415611c385780838381518110611c2357fe5b60200260200101818152505081806001019250505b8080600101915050611ba2565b508192505050919050565b600760009054906101000a900473ffffffffffffffffffffffffffffffffffffffff1681565b60008373ffffffffffffffffffffffffffffffffffffffff166323b872dd3330866040518463ffffffff1660e01b8152600401808473ffffffffffffffffffffffffffffffffffffffff1673ffffffffffffffffffffffffffffffffffffffff1681526020018373ffffffffffffffffffffffffffffffffffffffff1673ffffffffffffffffffffffffffffffffffffffff1681526020018281526020019350505050602060405180830381600087803b158015611d3357600080fd5b505af1158015611d47573d6000803e3d6000fd5b505050506040513d6020811015611d5d57600080fd5b8101908080519060200190929190505050508373ffffffffffffffffffffffffffffffffffffffff1663095ea7b3600760009054906101000a900473ffffffffffffffffffffffffffffffffffffffff1673ffffffffffffffffffffffffffffffffffffffff1663ed6ff7606040518163ffffffff1660e01b815260040160206040518083038186803b158015611df357600080fd5b505afa158015611e07573d6000803e3d6000fd5b505050506040513d6020811015611e1d57600080fd5b8101908080519060200190929190505050856040518363ffffffff1660e01b8152600401808373ffffffffffffffffffffffffffffffffffffffff1673ffffffffffffffffffffffffffffffffffffffff16815260200182815260200192505050602060405180830381600087803b158015611e9857600080fd5b505af1158015611eac573d6000803e3d6000fd5b505050506040513d6020811015611ec257600080fd5b810190808051906020019092919050505050600860009054906101000a900473ffffffffffffffffffffffffffffffffffffffff1673ffffffffffffffffffffffffffffffffffffffff1663d2d0e0668585856040518463ffffffff1660e01b8152600401808473ffffffffffffffffffffffffffffffffffffffff1673ffffffffffffffffffffffffffffffffffffffff1681526020018381526020018261ffff1661ffff1681526020019350505050600060405180830381600087803b158015611f8d57600080fd5b505af1158015611fa1573d6000803e3d6000fd5b505050506000600860009054906101000a900473ffffffffffffffffffffffffffffffffffffffff1673ffffffffffffffffffffffffffffffffffffffff166335ea6a75866040518263ffffffff1660e01b8152600401808273ffffffffffffffffffffffffffffffffffffffff1673ffffffffffffffffffffffffffffffffffffffff1681526020019150506101a06040518083038186803b15801561204757600080fd5b505afa15801561205b573d6000803e3d6000fd5b505050506040513d6101a081101561207257600080fd5b8101908080519060200190929190805190602001909291908051906020019092919080519060200190929190805190602001909291908051906020019092919080519060200190929190805190602001909291908051906020019092919080519060200190929190805190602001909291908051906020019092919080519060200190929190505050909192939495969798999a9b50909192939495969798999a5090919293949596979899509091929394959697985090919293949596975090919293949596509091929394955090919293945090919293509091925090915050809150508073ffffffffffffffffffffffffffffffffffffffff1663095ea7b330866040518363ffffffff1660e01b8152600401808373ffffffffffffffffffffffffffffffffffffffff1673ffffffffffffffffffffffffffffffffffffffff16815260200182815260200192505050602060405180830381600087803b1580156121df57600080fd5b505af11580156121f3573d6000803e3d6000fd5b505050506040513d602081101561220957600080fd5b810190808051906020019092919050505061228c576040517f08c379a000000000000000000000000000000000000000000000000000000000815260040180806020018281038252600f8152602001807f4572726f7220617070726f76696e67000000000000000000000000000000000081525060200191505060405180910390fd5b8073ffffffffffffffffffffffffffffffffffffffff166323b872dd3033876040518463ffffffff1660e01b8152600401808473ffffffffffffffffffffffffffffffffffffffff1673ffffffffffffffffffffffffffffffffffffffff1681526020018373ffffffffffffffffffffffffffffffffffffffff1673ffffffffffffffffffffffffffffffffffffffff1681526020018281526020019350505050602060405180830381600087803b15801561234757600080fd5b505af115801561235b573d6000803e3d6000fd5b505050506040513d602081101561237157600080fd5b81019080805190602001909291905050506123f4576040517f08c379a00000000000000000000000000000000000000000000000000000000081526004018080602001828103825260198152602001807f4572726f72207472616e7366657272696e6720746f6b656e730000000000000081525060200191505060405180910390fd5b509392505050565b60008273ffffffffffffffffffffffffffffffffffffffff166323b872dd3330856040518463ffffffff1660e01b8152600401808473ffffffffffffffffffffffffffffffffffffffff1673ffffffffffffffffffffffffffffffffffffffff1681526020018373ffffffffffffffffffffffffffffffffffffffff1673ffffffffffffffffffffffffffffffffffffffff1681526020018281526020019350505050602060405180830381600087803b1580156124b957600080fd5b505af11580156124cd573d6000803e3d6000fd5b505050506040513d60208110156124e357600080fd5b8101908080519060200190929190505050508273ffffffffffffffffffffffffffffffffffffffff1663db006a75836040518263ffffffff1660e01b815260040180828152602001915050600060405180830381600087803b15801561254857600080fd5b505af115801561255c573d6000803e3d6000fd5b5050505060008373ffffffffffffffffffffffffffffffffffffffff166389d1a0fc6040518163ffffffff1660e01b815260040160206040518083038186803b1580156125a857600080fd5b505afa1580156125bc573d6000803e3d6000fd5b505050506040513d60208110156125d257600080fd5b810190808051906020019092919050505090508073ffffffffffffffffffffffffffffffffffffffff1663095ea7b330856040518363ffffffff1660e01b8152600401808373ffffffffffffffffffffffffffffffffffffffff1673ffffffffffffffffffffffffffffffffffffffff16815260200182815260200192505050602060405180830381600087803b15801561266c57600080fd5b505af1158015612680573d6000803e3d6000fd5b505050506040513d602081101561269657600080fd5b8101908080519060200190929190505050508073ffffffffffffffffffffffffffffffffffffffff166323b872dd3033866040518463ffffffff1660e01b8152600401808473ffffffffffffffffffffffffffffffffffffffff1673ffffffffffffffffffffffffffffffffffffffff1681526020018373ffffffffffffffffffffffffffffffffffffffff1673ffffffffffffffffffffffffffffffffffffffff1681526020018281526020019350505050602060405180830381600087803b15801561276357600080fd5b505af1158015612777573d6000803e3d6000fd5b505050506040513d602081101561278d57600080fd5b8101908080519060200190929190505050505092915050565b600860009054906101000a900473ffffffffffffffffffffffffffffffffffffffff1681565b6127d46129d9565b600582815481106127e157fe5b906000526020600020906009020160405180610120016040529081600082015481526020016001820160009054906101000a900473ffffffffffffffffffffffffffffffffffffffff1673ffffffffffffffffffffffffffffffffffffffff1673ffffffffffffffffffffffffffffffffffffffff1681526020016002820160009054906101000a900473ffffffffffffffffffffffffffffffffffffffff1673ffffffffffffffffffffffffffffffffffffffff1673ffffffffffffffffffffffffffffffffffffffff1681526020016003820160009054906101000a900473ffffffffffffffffffffffffffffffffffffffff1673ffffffffffffffffffffffffffffffffffffffff1673ffffffffffffffffffffffffffffffffffffffff1681526020016004820160009054906101000a900473ffffffffffffffffffffffffffffffffffffffff1673ffffffffffffffffffffffffffffffffffffffff1673ffffffffffffffffffffffffffffffffffffffff168152602001600582015481526020016006820160009054906101000a900460ff16600181111561298557fe5b600181111561299057fe5b81526020016007820154815260200160088201548152505090506129d581602001518260600151836040015184608001518560e0015168056bc75e2d6310000061110e565b5050565b60405180610120016040528060008152602001600073ffffffffffffffffffffffffffffffffffffffff168152602001600073ffffffffffffffffffffffffffffffffffffffff168152602001600073ffffffffffffffffffffffffffffffffffffffff168152602001600073ffffffffffffffffffffffffffffffffffffffff1681526020016000815260200160006001811115612a7457fe5b81526020016000815260200160008152509056fe4e6f7420617574686f72697a656420746f206368616e676520534950207374617475734e6f7420617574686f72697a656420746f2063616c6c20746869732066756e6374696f6e5472616e73666572206f6620746f6b656e2066726f6d2075736572206163636f756e74206661696c6564a2646970667358221220ef6f54379c690daa0be9eb65f744c1d26091be5739f7a985be4c7d63a8b6ab5164736f6c63430006080033",
  "immutableReferences": {},
  "source": "pragma solidity ^0.6.0;\n\n\nimport \"./ERC20Interface.sol\";\nimport \"./KyberNetworkProxy.sol\";\nimport \"./ILendingPool.sol\";\nimport \"./ILendingPoolAddressesProvider.sol\";\nimport \"./ATokenInterface.sol\";\n\n\ncontract CapitalETH {\n\n    address payable public owner;\n\n    mapping(address => bool) public processors;        //Mapping of all valid SIP processors\n    mapping(address => uint) public userSIPCount;      //Mapping of Address to SIP count\n    mapping(uint => address) public idToAddress;       //Mapping of SIP id to user address\n\n    enum Status{ active, paused }\n    uint public totalSIPCount;\n\n    //Structure of the SIP Plan\n    struct Plan {\n\n        uint id;            //Unique ID of SIP\n\n        address payable srcAccount;         //Wallet address from where source token will be debited\n        address payable destAccount;        //Wallet address where the destination token will be deposited\n\n        address srcToken;           //Address of source Token (ERC20)\n        address destToken;          //Address of destination Token (ERC20)\n\n        uint period;        //Number of days between deduction\n        Status status;      //Status of the investment plan\n\n        uint amount;        //Amount to be deducted every period interval (18 decimals)\n        uint lastTx;        //Timestamp of the last transaction\n    }\n\n    //Array of SIPs to store all the SIPs\n    Plan[] public plans;\n\n    //Kyber Network Proxy contract address to swap tokens\n    KyberNetworkProxyInterface public kyberNetworkProxyContract;\n\n    //Aave Lending Pool contract Address\n    uint16 public aaveRef;\n    ILendingPoolAddressesProvider public aaveAddressProvider;\n    ILendingPool public aaveLendingPool;\n\n    constructor() public {\n        owner = msg.sender;\n        processors[owner] = true;\n        totalSIPCount = 0;\n    }\n\n    receive() external payable { }\n    fallback() external payable { }\n\n    //Events\n    event newSIPCreated(uint id, address indexed srcAccount);\n    // SIPUpdated();\n    // installmentReceived();\n    event updateKyberNetworkProxyContract(address indexed oldAddress, address indexed newContractAddress);\n\n    event tokensSwapped(\n        address indexed srcAccount,\n        ERC20 srcToken,\n        address indexed destAccount,\n        ERC20 destToken,\n        uint srcQty);\n\n    function createSIP( address payable srcAccount,\n                        address payable destAccount,\n                        address srcToken,\n                        address destToken,\n                        uint period,\n                        uint amount\n                    ) public returns (uint) {\n\n        uint planId = totalSIPCount;\n\n        plans.push(Plan(planId, srcAccount, destAccount, srcToken, destToken, period, Status.active, amount, now));\n\n        userSIPCount[srcAccount]++;\n        idToAddress[planId] = srcAccount;\n        totalSIPCount++;\n\n        emit newSIPCreated(planId, srcAccount);\n    }\n\n    // function processMultipleSIPs(uint[] memory planIDs) public {\n\n    //     //Check if msg.sender is a valid processor\n    //     require(processors[msg.sender], \"Only valid processors can trigger installments\");\n\n    //     for(uint i = 0; i < planIDs.length; i++ ) {\n    //         Plan memory userPlan = plans[i];\n    //         executeSwap( ERC20(userPlan.srcToken),\n    //                      userPlan.amount,\n    //                      ERC20(userPlan.destToken),\n    //                      userPlan.destAccount,\n    //                     1e18);\n    //     }\n    // }\n\n    function processSingleSIP(uint sipID) public {\n        // require(processors[msg.sender], \"Only valid processors can trigger installments\");\n\n        Plan memory userPlan = plans[sipID];\n        swapTokensUsingKyber(\n            userPlan.srcAccount,\n            ERC20(userPlan.srcToken),\n            userPlan.destAccount,\n            ERC20(userPlan.destToken),\n            userPlan.amount,\n            100 * 1e18);\n    }\n\n    function pauseSIP(uint id) public returns (bool) {\n        require(msg.sender == plans[id].srcAccount, \"Not authorized to change SIP status\");\n\n        require(plans[id].status == Status.active, \"Plan not active\");\n\n        //Pause the status of SIP\n        plans[id].status = Status.paused;\n    }\n\n    function getPlansByAddress(\n        address srcAddress\n    )\n    public\n    view\n    returns (uint[] memory) {\n\n        uint[] memory result = new uint[](userSIPCount[srcAddress]);\n        uint index = 0;\n        for (uint i = 0; i < plans.length; i++) {\n            if (idToAddress[i] == srcAddress) {\n                result[index] = i;\n                index++;\n            }\n        }\n        return result;\n    }\n\n/*\n*******************************************************************************\n* Kyber Network contract functions\n/******************************************************************************\n*/\n    function setKyberNetworkProxyContract(address newContractAddress) public returns (bool) {\n\n        require(msg.sender == owner, \"Not authorized to call this function\");\n        address oldAddress = address(kyberNetworkProxyContract);\n        kyberNetworkProxyContract = KyberNetworkProxyInterface(newContractAddress);\n        emit updateKyberNetworkProxyContract(oldAddress, newContractAddress);\n\n    }\n\n    function swapTokensUsingKyber(\n        address srcAccount,\n        ERC20 srcToken,\n        address destAccount,\n        ERC20 destToken,\n        uint srcQty,\n        uint maxDestAmount\n    ) public {\n\n        uint minConversionRate;\n        require(srcToken.transferFrom(\n            srcAccount,\n            address(this),\n            srcQty),\n            \"Transfer of token from user account failed\"\n        );\n\n        // Mitigate ERC20 Approve front-running attack, by initially setting allowance to 0\n        require(srcToken.approve(address(kyberNetworkProxyContract), 0), \"Error approving allowance\");\n        require(srcToken.approve(address(kyberNetworkProxyContract), srcQty), \"Error approving allowance\");\n\n        // Get the minimum conversion rate\n        (minConversionRate,) = kyberNetworkProxyContract.getExpectedRate(srcToken, destToken, srcQty);\n\n        // Swap the ERC20 token and send to destAddress\n        kyberNetworkProxyContract.trade(\n            srcToken,\n            srcQty,\n            destToken,\n            destAccount,\n            maxDestAmount,\n            minConversionRate,\n            owner\n        );\n\n        // Log the event\n        emit tokensSwapped(srcAccount, srcToken, destAccount, destToken, srcQty);\n    }\n\n/*\n*******************************************************************************\n* Aave contract functions\n/******************************************************************************\n*/\n\n    function setAaveAddress(address lendingPoolAddressProvider) public returns (bool) {\n\n        aaveAddressProvider = ILendingPoolAddressesProvider(lendingPoolAddressProvider);\n        aaveLendingPool = ILendingPool(aaveAddressProvider.getLendingPool());\n\n    }\n\n    function getInterestBearingATokens(\n        address srcToken,\n        uint amount,\n        uint16 ref\n    ) public returns (bool) {\n\n        //Transfer source token from user to this contract\n        ERC20(srcToken).transferFrom(msg.sender, address(this), amount);\n\n        ERC20(srcToken).approve(aaveAddressProvider.getLendingPoolCore(), amount);\n\n        //Deposits the source Tokens from contract and returns aTokens\n        aaveLendingPool.deposit(srcToken, amount, ref);\n\n        address aTokenAddress;\n\n        //Get the aToken Address\n        (, , , , , , , , , , , aTokenAddress, ) = aaveLendingPool.getReserveData(srcToken);\n\n        require(ERC20(aTokenAddress).approve(address(this), amount), \"Error approving\");\n\n        require(ERC20(aTokenAddress).transferFrom(address(this), msg.sender, amount), \"Error transferring tokens\");\n    }\n\n    function getUnderlyingToken(\n        address aTokenAddress,\n        uint amount\n    )\n    public\n    returns (bool) {\n\n        ERC20(aTokenAddress).transferFrom(msg.sender, address(this), amount);\n\n        //Redeem underlying tokens. The underlying token is transferred to this contract\n        AToken(aTokenAddress).redeem(amount);\n\n        //Get underlying token address\n        address underlyingToken = AToken(aTokenAddress).underlyingAssetAddress();\n\n        ERC20(underlyingToken).approve(address(this), amount);\n\n        ERC20(underlyingToken).transferFrom(address(this), msg.sender, amount);\n\n    }\n\n}",
  "sourcePath": "/home/sudeep/projects/capitalETH/contracts/CapitalETH.sol",
  "compiler": {
    "name": "solc",
    "version": "0.6.8+commit.0bbfe453.Emscripten.clang"
  },
  "schemaVersion": "3.1.0",
  "updatedAt": "2020-05-17T19:59:06.919Z",
  "devdoc": {
    "methods": {}
  },
  "userdoc": {
    "methods": {}
  }
}