{
  "contractName": "CapitalETH",
  "abi": [
    {
      "inputs": [],
      "stateMutability": "nonpayable",
      "type": "constructor"
    },
    {
      "anonymous": false,
      "inputs": [
        {
          "indexed": false,
          "internalType": "uint256",
          "name": "id",
          "type": "uint256"
        },
        {
          "indexed": true,
          "internalType": "address",
          "name": "srcAccount",
          "type": "address"
        }
      ],
      "name": "newSIPCreated",
      "type": "event"
    },
    {
      "anonymous": false,
      "inputs": [
        {
          "indexed": true,
          "internalType": "address",
          "name": "srcAccount",
          "type": "address"
        },
        {
          "indexed": false,
          "internalType": "contract ERC20",
          "name": "srcToken",
          "type": "address"
        },
        {
          "indexed": true,
          "internalType": "address",
          "name": "destAccount",
          "type": "address"
        },
        {
          "indexed": false,
          "internalType": "contract ERC20",
          "name": "destToken",
          "type": "address"
        },
        {
          "indexed": false,
          "internalType": "uint256",
          "name": "srcQty",
          "type": "uint256"
        }
      ],
      "name": "tokensSwapped",
      "type": "event"
    },
    {
      "anonymous": false,
      "inputs": [
        {
          "indexed": true,
          "internalType": "address",
          "name": "oldAddress",
          "type": "address"
        },
        {
          "indexed": true,
          "internalType": "address",
          "name": "newContractAddress",
          "type": "address"
        }
      ],
      "name": "updateKyberNetworkProxyContract",
      "type": "event"
    },
    {
      "inputs": [],
      "name": "aaveAddressProvider",
      "outputs": [
        {
          "internalType": "contract ILendingPoolAddressesProvider",
          "name": "",
          "type": "address"
        }
      ],
      "stateMutability": "view",
      "type": "function"
    },
    {
      "inputs": [],
      "name": "aaveLendingPool",
      "outputs": [
        {
          "internalType": "contract ILendingPool",
          "name": "",
          "type": "address"
        }
      ],
      "stateMutability": "view",
      "type": "function"
    },
    {
      "inputs": [
        {
          "internalType": "uint256",
          "name": "",
          "type": "uint256"
        }
      ],
      "name": "idToAddress",
      "outputs": [
        {
          "internalType": "address",
          "name": "",
          "type": "address"
        }
      ],
      "stateMutability": "view",
      "type": "function"
    },
    {
      "inputs": [],
      "name": "kyberNetworkProxyContract",
      "outputs": [
        {
          "internalType": "contract KyberNetworkProxyInterface",
          "name": "",
          "type": "address"
        }
      ],
      "stateMutability": "view",
      "type": "function"
    },
    {
      "inputs": [],
      "name": "owner",
      "outputs": [
        {
          "internalType": "address payable",
          "name": "",
          "type": "address"
        }
      ],
      "stateMutability": "view",
      "type": "function"
    },
    {
      "inputs": [
        {
          "internalType": "uint256",
          "name": "",
          "type": "uint256"
        }
      ],
      "name": "plans",
      "outputs": [
        {
          "internalType": "uint256",
          "name": "id",
          "type": "uint256"
        },
        {
          "internalType": "address payable",
          "name": "srcAccount",
          "type": "address"
        },
        {
          "internalType": "address payable",
          "name": "destAccount",
          "type": "address"
        },
        {
          "internalType": "address",
          "name": "srcToken",
          "type": "address"
        },
        {
          "internalType": "address",
          "name": "destToken",
          "type": "address"
        },
        {
          "internalType": "uint256",
          "name": "period",
          "type": "uint256"
        },
        {
          "internalType": "enum CapitalETH.Status",
          "name": "status",
          "type": "uint8"
        },
        {
          "internalType": "uint256",
          "name": "amount",
          "type": "uint256"
        },
        {
          "internalType": "uint256",
          "name": "lastTx",
          "type": "uint256"
        }
      ],
      "stateMutability": "view",
      "type": "function"
    },
    {
      "inputs": [
        {
          "internalType": "address",
          "name": "",
          "type": "address"
        }
      ],
      "name": "processors",
      "outputs": [
        {
          "internalType": "bool",
          "name": "",
          "type": "bool"
        }
      ],
      "stateMutability": "view",
      "type": "function"
    },
    {
      "inputs": [
        {
          "internalType": "address",
          "name": "",
          "type": "address"
        }
      ],
      "name": "userSIPCount",
      "outputs": [
        {
          "internalType": "uint256",
          "name": "",
          "type": "uint256"
        }
      ],
      "stateMutability": "view",
      "type": "function"
    },
    {
      "inputs": [
        {
          "internalType": "address payable",
          "name": "srcAccount",
          "type": "address"
        },
        {
          "internalType": "address payable",
          "name": "destAccount",
          "type": "address"
        },
        {
          "internalType": "address",
          "name": "srcToken",
          "type": "address"
        },
        {
          "internalType": "address",
          "name": "destToken",
          "type": "address"
        },
        {
          "internalType": "uint256",
          "name": "period",
          "type": "uint256"
        },
        {
          "internalType": "uint256",
          "name": "amount",
          "type": "uint256"
        }
      ],
      "name": "createSIP",
      "outputs": [
        {
          "internalType": "uint256",
          "name": "",
          "type": "uint256"
        }
      ],
      "stateMutability": "nonpayable",
      "type": "function"
    },
    {
      "inputs": [
        {
          "internalType": "uint256",
          "name": "sipID",
          "type": "uint256"
        }
      ],
      "name": "processSingleSIP",
      "outputs": [],
      "stateMutability": "nonpayable",
      "type": "function"
    },
    {
      "inputs": [
        {
          "internalType": "uint256",
          "name": "id",
          "type": "uint256"
        }
      ],
      "name": "pauseSIP",
      "outputs": [
        {
          "internalType": "bool",
          "name": "",
          "type": "bool"
        }
      ],
      "stateMutability": "nonpayable",
      "type": "function"
    },
    {
      "inputs": [
        {
          "internalType": "address",
          "name": "newContractAddress",
          "type": "address"
        }
      ],
      "name": "setKyberNetworkProxyContract",
      "outputs": [
        {
          "internalType": "bool",
          "name": "",
          "type": "bool"
        }
      ],
      "stateMutability": "nonpayable",
      "type": "function"
    },
    {
      "inputs": [
        {
          "internalType": "address",
          "name": "srcAccount",
          "type": "address"
        },
        {
          "internalType": "contract ERC20",
          "name": "srcToken",
          "type": "address"
        },
        {
          "internalType": "address",
          "name": "destAccount",
          "type": "address"
        },
        {
          "internalType": "contract ERC20",
          "name": "destToken",
          "type": "address"
        },
        {
          "internalType": "uint256",
          "name": "srcQty",
          "type": "uint256"
        },
        {
          "internalType": "uint256",
          "name": "maxDestAmount",
          "type": "uint256"
        }
      ],
      "name": "swapTokensUsingKyber",
      "outputs": [],
      "stateMutability": "nonpayable",
      "type": "function"
    },
    {
      "inputs": [
        {
          "internalType": "address",
          "name": "lendingPoolAddressProvider",
          "type": "address"
        }
      ],
      "name": "setAaveLendingPool",
      "outputs": [
        {
          "internalType": "bool",
          "name": "",
          "type": "bool"
        }
      ],
      "stateMutability": "nonpayable",
      "type": "function"
    },
    {
      "inputs": [
        {
          "internalType": "address",
          "name": "srcAccount",
          "type": "address"
        },
        {
          "internalType": "address",
          "name": "srcToken",
          "type": "address"
        },
        {
          "internalType": "uint256",
          "name": "amount",
          "type": "uint256"
        }
      ],
      "name": "getInterestBearingTokens",
      "outputs": [
        {
          "internalType": "bool",
          "name": "",
          "type": "bool"
        }
      ],
      "stateMutability": "nonpayable",
      "type": "function"
    }
  ],
  "bytecode": "0x60806040526000600660146101000a81548161ffff021916908361ffff16021790555034801561002e57600080fd5b50336000806101000a81548173ffffffffffffffffffffffffffffffffffffffff021916908373ffffffffffffffffffffffffffffffffffffffff16021790555060018060008060009054906101000a900473ffffffffffffffffffffffffffffffffffffffff1673ffffffffffffffffffffffffffffffffffffffff1673ffffffffffffffffffffffffffffffffffffffff16815260200190815260200160002060006101000a81548160ff0219169083151502179055506120bc806100f66000396000f3fe608060405234801561001057600080fd5b50600436106100f55760003560e01c80638308452b11610097578063b162061611610066578063b1620616146105b8578063cdaabe41146106f0578063e9d337b81461073a578063eb0097be14610784576100f5565b80638308452b146103fe5780638da5cb5b146104b6578063965e064a14610500578063a16c458e1461055c576100f5565b80633ac13589116100d35780633ac13589146102ba5780633f19d6f014610312578063401a7da21461036e578063785250da146103b4576100f5565b80631812336f146100fa57806324719414146101805780632a2d0c471461024c575b600080fd5b6101666004803603606081101561011057600080fd5b81019080803573ffffffffffffffffffffffffffffffffffffffff169060200190929190803573ffffffffffffffffffffffffffffffffffffffff169060200190929190803590602001909291905050506107b2565b604051808215151515815260200191505060405180910390f35b610236600480360360c081101561019657600080fd5b81019080803573ffffffffffffffffffffffffffffffffffffffff169060200190929190803573ffffffffffffffffffffffffffffffffffffffff169060200190929190803573ffffffffffffffffffffffffffffffffffffffff169060200190929190803573ffffffffffffffffffffffffffffffffffffffff1690602001909291908035906020019092919080359060200190929190505050610b4c565b6040518082815260200191505060405180910390f35b6102786004803603602081101561026257600080fd5b8101908080359060200190929190505050610ead565b604051808273ffffffffffffffffffffffffffffffffffffffff1673ffffffffffffffffffffffffffffffffffffffff16815260200191505060405180910390f35b6102fc600480360360208110156102d057600080fd5b81019080803573ffffffffffffffffffffffffffffffffffffffff169060200190929190505050610ee0565b6040518082815260200191505060405180910390f35b6103546004803603602081101561032857600080fd5b81019080803573ffffffffffffffffffffffffffffffffffffffff169060200190929190505050610ef8565b604051808215151515815260200191505060405180910390f35b61039a6004803603602081101561038457600080fd5b8101908080359060200190929190505050611067565b604051808215151515815260200191505060405180910390f35b6103bc611227565b604051808273ffffffffffffffffffffffffffffffffffffffff1673ffffffffffffffffffffffffffffffffffffffff16815260200191505060405180910390f35b6104b4600480360360c081101561041457600080fd5b81019080803573ffffffffffffffffffffffffffffffffffffffff169060200190929190803573ffffffffffffffffffffffffffffffffffffffff169060200190929190803573ffffffffffffffffffffffffffffffffffffffff169060200190929190803573ffffffffffffffffffffffffffffffffffffffff169060200190929190803590602001909291908035906020019092919050505061124d565b005b6104be6119f3565b604051808273ffffffffffffffffffffffffffffffffffffffff1673ffffffffffffffffffffffffffffffffffffffff16815260200191505060405180910390f35b6105426004803603602081101561051657600080fd5b81019080803573ffffffffffffffffffffffffffffffffffffffff169060200190929190505050611a18565b604051808215151515815260200191505060405180910390f35b61059e6004803603602081101561057257600080fd5b81019080803573ffffffffffffffffffffffffffffffffffffffff169060200190929190505050611a38565b604051808215151515815260200191505060405180910390f35b6105e4600480360360208110156105ce57600080fd5b8101908080359060200190929190505050611c25565b604051808a81526020018973ffffffffffffffffffffffffffffffffffffffff1673ffffffffffffffffffffffffffffffffffffffff1681526020018873ffffffffffffffffffffffffffffffffffffffff1673ffffffffffffffffffffffffffffffffffffffff1681526020018773ffffffffffffffffffffffffffffffffffffffff1673ffffffffffffffffffffffffffffffffffffffff1681526020018673ffffffffffffffffffffffffffffffffffffffff1673ffffffffffffffffffffffffffffffffffffffff1681526020018581526020018460018111156106c857fe5b60ff168152602001838152602001828152602001995050505050505050505060405180910390f35b6106f8611d0d565b604051808273ffffffffffffffffffffffffffffffffffffffff1673ffffffffffffffffffffffffffffffffffffffff16815260200191505060405180910390f35b610742611d33565b604051808273ffffffffffffffffffffffffffffffffffffffff1673ffffffffffffffffffffffffffffffffffffffff16815260200191505060405180910390f35b6107b06004803603602081101561079a57600080fd5b8101908080359060200190929190505050611d59565b005b60008273ffffffffffffffffffffffffffffffffffffffff166323b872dd8530856040518463ffffffff1660e01b8152600401808473ffffffffffffffffffffffffffffffffffffffff1673ffffffffffffffffffffffffffffffffffffffff1681526020018373ffffffffffffffffffffffffffffffffffffffff1673ffffffffffffffffffffffffffffffffffffffff1681526020018281526020019350505050602060405180830381600087803b15801561086f57600080fd5b505af1158015610883573d6000803e3d6000fd5b505050506040513d602081101561089957600080fd5b81019080805190602001909291905050506108ff576040517f08c379a000000000000000000000000000000000000000000000000000000000815260040180806020018281038252602a81526020018061205d602a913960400191505060405180910390fd5b8273ffffffffffffffffffffffffffffffffffffffff1663095ea7b3600760009054906101000a900473ffffffffffffffffffffffffffffffffffffffff1673ffffffffffffffffffffffffffffffffffffffff1663ed6ff7606040518163ffffffff1660e01b815260040160206040518083038186803b15801561098357600080fd5b505afa158015610997573d6000803e3d6000fd5b505050506040513d60208110156109ad57600080fd5b8101908080519060200190929190505050846040518363ffffffff1660e01b8152600401808373ffffffffffffffffffffffffffffffffffffffff1673ffffffffffffffffffffffffffffffffffffffff16815260200182815260200192505050602060405180830381600087803b158015610a2857600080fd5b505af1158015610a3c573d6000803e3d6000fd5b505050506040513d6020811015610a5257600080fd5b810190808051906020019092919050505050600860009054906101000a900473ffffffffffffffffffffffffffffffffffffffff1673ffffffffffffffffffffffffffffffffffffffff1663d2d0e0668484600660149054906101000a900461ffff166040518463ffffffff1660e01b8152600401808473ffffffffffffffffffffffffffffffffffffffff1673ffffffffffffffffffffffffffffffffffffffff1681526020018381526020018261ffff1661ffff1681526020019350505050600060405180830381600087803b158015610b2d57600080fd5b505af1158015610b41573d6000803e3d6000fd5b505050509392505050565b6000806004600081548092919060010191905055905060056040518061012001604052808381526020018a73ffffffffffffffffffffffffffffffffffffffff1681526020018973ffffffffffffffffffffffffffffffffffffffff1681526020018873ffffffffffffffffffffffffffffffffffffffff1681526020018773ffffffffffffffffffffffffffffffffffffffff16815260200186815260200160006001811115610bf957fe5b81526020018581526020014281525090806001815401808255809150506001900390600052602060002090600902016000909190919091506000820151816000015560208201518160010160006101000a81548173ffffffffffffffffffffffffffffffffffffffff021916908373ffffffffffffffffffffffffffffffffffffffff16021790555060408201518160020160006101000a81548173ffffffffffffffffffffffffffffffffffffffff021916908373ffffffffffffffffffffffffffffffffffffffff16021790555060608201518160030160006101000a81548173ffffffffffffffffffffffffffffffffffffffff021916908373ffffffffffffffffffffffffffffffffffffffff16021790555060808201518160040160006101000a81548173ffffffffffffffffffffffffffffffffffffffff021916908373ffffffffffffffffffffffffffffffffffffffff16021790555060a0820151816005015560c08201518160060160006101000a81548160ff02191690836001811115610d8557fe5b021790555060e0820151816007015561010082015181600801555050600260008973ffffffffffffffffffffffffffffffffffffffff1673ffffffffffffffffffffffffffffffffffffffff16815260200190815260200160002060008154809291906001019190505550876003600083815260200190815260200160002060006101000a81548173ffffffffffffffffffffffffffffffffffffffff021916908373ffffffffffffffffffffffffffffffffffffffff1602179055506004600081548092919060010191905055508773ffffffffffffffffffffffffffffffffffffffff167f7b08f9aeb6e6ab8650d6883d1bc7dd4380158a37c5a9156b06bfb7e874aefe05826040518082815260200191505060405180910390a2509695505050505050565b60036020528060005260406000206000915054906101000a900473ffffffffffffffffffffffffffffffffffffffff1681565b60026020528060005260406000206000915090505481565b60008060009054906101000a900473ffffffffffffffffffffffffffffffffffffffff1673ffffffffffffffffffffffffffffffffffffffff163373ffffffffffffffffffffffffffffffffffffffff1614610f9f576040517f08c379a00000000000000000000000000000000000000000000000000000000081526004018080602001828103825260248152602001806120396024913960400191505060405180910390fd5b6000600660009054906101000a900473ffffffffffffffffffffffffffffffffffffffff16905082600660006101000a81548173ffffffffffffffffffffffffffffffffffffffff021916908373ffffffffffffffffffffffffffffffffffffffff1602179055508273ffffffffffffffffffffffffffffffffffffffff168173ffffffffffffffffffffffffffffffffffffffff167f45d2e5558338aa15dc4b08f360804459b86dd441ea705d11d2286dd08539979660405160405180910390a350919050565b60006005828154811061107657fe5b906000526020600020906009020160010160009054906101000a900473ffffffffffffffffffffffffffffffffffffffff1673ffffffffffffffffffffffffffffffffffffffff163373ffffffffffffffffffffffffffffffffffffffff161461112b576040517f08c379a00000000000000000000000000000000000000000000000000000000081526004018080602001828103825260238152602001806120166023913960400191505060405180910390fd5b6000600181111561113857fe5b6005838154811061114557fe5b906000526020600020906009020160060160009054906101000a900460ff16600181111561116f57fe5b146111e2576040517f08c379a000000000000000000000000000000000000000000000000000000000815260040180806020018281038252600f8152602001807f506c616e206e6f7420616374697665000000000000000000000000000000000081525060200191505060405180910390fd5b6001600583815481106111f157fe5b906000526020600020906009020160060160006101000a81548160ff0219169083600181111561121d57fe5b0217905550919050565b600660009054906101000a900473ffffffffffffffffffffffffffffffffffffffff1681565b60008573ffffffffffffffffffffffffffffffffffffffff166323b872dd8830866040518463ffffffff1660e01b8152600401808473ffffffffffffffffffffffffffffffffffffffff1673ffffffffffffffffffffffffffffffffffffffff1681526020018373ffffffffffffffffffffffffffffffffffffffff1673ffffffffffffffffffffffffffffffffffffffff1681526020018281526020019350505050602060405180830381600087803b15801561130a57600080fd5b505af115801561131e573d6000803e3d6000fd5b505050506040513d602081101561133457600080fd5b810190808051906020019092919050505061139a576040517f08c379a000000000000000000000000000000000000000000000000000000000815260040180806020018281038252602a81526020018061205d602a913960400191505060405180910390fd5b8573ffffffffffffffffffffffffffffffffffffffff1663095ea7b3600660009054906101000a900473ffffffffffffffffffffffffffffffffffffffff1660006040518363ffffffff1660e01b8152600401808373ffffffffffffffffffffffffffffffffffffffff1673ffffffffffffffffffffffffffffffffffffffff16815260200182815260200192505050602060405180830381600087803b15801561144457600080fd5b505af1158015611458573d6000803e3d6000fd5b505050506040513d602081101561146e57600080fd5b81019080805190602001909291905050506114f1576040517f08c379a00000000000000000000000000000000000000000000000000000000081526004018080602001828103825260198152602001807f4572726f7220617070726f76696e6720616c6c6f77616e63650000000000000081525060200191505060405180910390fd5b8573ffffffffffffffffffffffffffffffffffffffff1663095ea7b3600660009054906101000a900473ffffffffffffffffffffffffffffffffffffffff16856040518363ffffffff1660e01b8152600401808373ffffffffffffffffffffffffffffffffffffffff1673ffffffffffffffffffffffffffffffffffffffff16815260200182815260200192505050602060405180830381600087803b15801561159a57600080fd5b505af11580156115ae573d6000803e3d6000fd5b505050506040513d60208110156115c457600080fd5b8101908080519060200190929190505050611647576040517f08c379a00000000000000000000000000000000000000000000000000000000081526004018080602001828103825260198152602001807f4572726f7220617070726f76696e6720616c6c6f77616e63650000000000000081525060200191505060405180910390fd5b600660009054906101000a900473ffffffffffffffffffffffffffffffffffffffff1673ffffffffffffffffffffffffffffffffffffffff1663809a9e558786866040518463ffffffff1660e01b8152600401808473ffffffffffffffffffffffffffffffffffffffff1673ffffffffffffffffffffffffffffffffffffffff1681526020018373ffffffffffffffffffffffffffffffffffffffff1673ffffffffffffffffffffffffffffffffffffffff1681526020018281526020019350505050604080518083038186803b15801561172157600080fd5b505afa158015611735573d6000803e3d6000fd5b505050506040513d604081101561174b57600080fd5b8101908080519060200190929190805190602001909291905050505080915050600660009054906101000a900473ffffffffffffffffffffffffffffffffffffffff1673ffffffffffffffffffffffffffffffffffffffff1663cb3c28c78785878987876000809054906101000a900473ffffffffffffffffffffffffffffffffffffffff166040518863ffffffff1660e01b8152600401808873ffffffffffffffffffffffffffffffffffffffff1673ffffffffffffffffffffffffffffffffffffffff1681526020018781526020018673ffffffffffffffffffffffffffffffffffffffff1673ffffffffffffffffffffffffffffffffffffffff1681526020018573ffffffffffffffffffffffffffffffffffffffff1673ffffffffffffffffffffffffffffffffffffffff1681526020018481526020018381526020018273ffffffffffffffffffffffffffffffffffffffff1673ffffffffffffffffffffffffffffffffffffffff168152602001975050505050505050602060405180830381600087803b1580156118e157600080fd5b505af11580156118f5573d6000803e3d6000fd5b505050506040513d602081101561190b57600080fd5b8101908080519060200190929190505050508473ffffffffffffffffffffffffffffffffffffffff168773ffffffffffffffffffffffffffffffffffffffff167f2db8742c53053920393da3465495ad24ebc945b856f619e88b9a6b5c63358c1d888787604051808473ffffffffffffffffffffffffffffffffffffffff1673ffffffffffffffffffffffffffffffffffffffff1681526020018373ffffffffffffffffffffffffffffffffffffffff1673ffffffffffffffffffffffffffffffffffffffff168152602001828152602001935050505060405180910390a350505050505050565b6000809054906101000a900473ffffffffffffffffffffffffffffffffffffffff1681565b60016020528060005260406000206000915054906101000a900460ff1681565b60008060009054906101000a900473ffffffffffffffffffffffffffffffffffffffff1673ffffffffffffffffffffffffffffffffffffffff163373ffffffffffffffffffffffffffffffffffffffff1614611afc576040517f08c379a000000000000000000000000000000000000000000000000000000000815260040180806020018281038252600a8152602001807f4f6e6c79204f776e65720000000000000000000000000000000000000000000081525060200191505060405180910390fd5b81600760006101000a81548173ffffffffffffffffffffffffffffffffffffffff021916908373ffffffffffffffffffffffffffffffffffffffff160217905550600760009054906101000a900473ffffffffffffffffffffffffffffffffffffffff1673ffffffffffffffffffffffffffffffffffffffff16630261bf8b6040518163ffffffff1660e01b815260040160206040518083038186803b158015611ba557600080fd5b505afa158015611bb9573d6000803e3d6000fd5b505050506040513d6020811015611bcf57600080fd5b8101908080519060200190929190505050600860006101000a81548173ffffffffffffffffffffffffffffffffffffffff021916908373ffffffffffffffffffffffffffffffffffffffff160217905550919050565b60058181548110611c3257fe5b90600052602060002090600902016000915090508060000154908060010160009054906101000a900473ffffffffffffffffffffffffffffffffffffffff16908060020160009054906101000a900473ffffffffffffffffffffffffffffffffffffffff16908060030160009054906101000a900473ffffffffffffffffffffffffffffffffffffffff16908060040160009054906101000a900473ffffffffffffffffffffffffffffffffffffffff16908060050154908060060160009054906101000a900460ff16908060070154908060080154905089565b600760009054906101000a900473ffffffffffffffffffffffffffffffffffffffff1681565b600860009054906101000a900473ffffffffffffffffffffffffffffffffffffffff1681565b611d61611f66565b60058281548110611d6e57fe5b906000526020600020906009020160405180610120016040529081600082015481526020016001820160009054906101000a900473ffffffffffffffffffffffffffffffffffffffff1673ffffffffffffffffffffffffffffffffffffffff1673ffffffffffffffffffffffffffffffffffffffff1681526020016002820160009054906101000a900473ffffffffffffffffffffffffffffffffffffffff1673ffffffffffffffffffffffffffffffffffffffff1673ffffffffffffffffffffffffffffffffffffffff1681526020016003820160009054906101000a900473ffffffffffffffffffffffffffffffffffffffff1673ffffffffffffffffffffffffffffffffffffffff1673ffffffffffffffffffffffffffffffffffffffff1681526020016004820160009054906101000a900473ffffffffffffffffffffffffffffffffffffffff1673ffffffffffffffffffffffffffffffffffffffff1673ffffffffffffffffffffffffffffffffffffffff168152602001600582015481526020016006820160009054906101000a900460ff166001811115611f1257fe5b6001811115611f1d57fe5b8152602001600782015481526020016008820154815250509050611f6281602001518260600151836040015184608001518560e0015168056bc75e2d6310000061124d565b5050565b60405180610120016040528060008152602001600073ffffffffffffffffffffffffffffffffffffffff168152602001600073ffffffffffffffffffffffffffffffffffffffff168152602001600073ffffffffffffffffffffffffffffffffffffffff168152602001600073ffffffffffffffffffffffffffffffffffffffff168152602001600081526020016000600181111561200157fe5b81526020016000815260200160008152509056fe4e6f7420617574686f72697a656420746f206368616e676520534950207374617475734e6f7420617574686f72697a656420746f2063616c6c20746869732066756e6374696f6e5472616e73666572206f6620746f6b656e2066726f6d2075736572206163636f756e74206661696c6564a26469706673582212206c1d9f9749922927f3981ff10b156e39e20bf7fe2df0daa2a8c0fb5d07e0ca4964736f6c63430006070033",
  "immutableReferences": {},
  "source": "pragma solidity ^0.6.0;\n\nimport \"./ERC20Interface.sol\";\nimport \"./KyberNetworkProxy.sol\";\nimport \"./ILendingPool.sol\";\nimport \"./ILendingPoolAddressProvider.sol\";\n\ncontract CapitalETH {\n\n    address payable public owner;\n\n    mapping (address => bool) public processors;        //Mapping of all valid SIP processors\n    mapping (address => uint) public userSIPCount;      //Mapping of Address to SIP count\n    mapping (uint => address) public idToAddress;       //Mapping of SIP id to user address\n\n    enum Status{ active, paused }\n    uint totalSIPCount;\n\n    //Structure of the SIP Plan\n    struct Plan {\n\n        uint id;            //Unique ID of SIP\n\n        address payable srcAccount;         //Wallet address from where source token will be debited\n        address payable destAccount;        //Wallet address where the destination token will be deposited\n\n        address srcToken;           //Address of source Token (ERC20)\n        address destToken;          //Address of destination Token (ERC20)\n\n        uint period;        //Number of days between deduction\n        Status status;      //Status of the investment plan\n\n        uint amount;        //Amount to be deducted every period interval (18 decimals)\n        uint lastTx;        //Timestamp of the last transaction\n    }\n\n    //Array of SIPs to store all the SIPs\n    Plan[] public plans;\n\n    //Kyber Network Proxy contract address to swap tokens\n    KyberNetworkProxyInterface public kyberNetworkProxyContract;\n\n    //Aave Lending Pool\n    uint16 aaveRef = 0;\n    ILendingPoolAddressesProvider public aaveAddressProvider;\n    ILendingPool public aaveLendingPool;\n\n    constructor() public {\n        owner = msg.sender;\n        processors[owner] = true;\n    }\n\n    //capitalETH Events\n    event newSIPCreated(uint id, address indexed srcAccount);\n    // SIPUpdated();\n    // installmentReceived();\n\n    //KyberNetwork Events\n    event updateKyberNetworkProxyContract(address indexed oldAddress, address indexed newContractAddress);\n\n    event tokensSwapped(\n        address indexed srcAccount,\n        ERC20 srcToken,\n        address indexed destAccount,\n        ERC20 destToken,\n        uint srcQty);\n\n    //Aave events\n\n    function createSIP( address payable srcAccount,\n                        address payable destAccount,\n                        address srcToken,\n                        address destToken,\n                        uint period,\n                        uint amount\n                    ) public returns (uint) {\n\n        uint planId = totalSIPCount++;\n\n        plans.push(Plan(planId, srcAccount, destAccount, srcToken, destToken, period, Status.active, amount, now));\n\n        userSIPCount[srcAccount]++;\n        idToAddress[planId] = srcAccount;\n        totalSIPCount++;\n\n        emit newSIPCreated(planId, srcAccount);\n    }\n\n    // function processMultipleSIPs(uint[] memory planIDs) public {\n\n    //     //Check if msg.sender is a valid processor\n    //     require(processors[msg.sender], \"Only valid processors can trigger installments\");\n\n    //     for(uint i = 0; i < planIDs.length; i++ ) {\n    //         Plan memory userPlan = plans[i];\n    //         executeSwap( ERC20(userPlan.srcToken),\n    //                      userPlan.amount,\n    //                      ERC20(userPlan.destToken),\n    //                      userPlan.destAccount,\n    //                     1e18);\n    //     }\n    // }\n\n    function processSingleSIP(uint sipID) public {\n        // require(processors[msg.sender], \"Only valid processors can trigger installments\");\n\n        Plan memory userPlan = plans[sipID];\n        swapTokensUsingKyber(\n            userPlan.srcAccount,\n            ERC20(userPlan.srcToken),\n            userPlan.destAccount,\n            ERC20(userPlan.destToken),\n            userPlan.amount,\n            100 * 1e18);\n    }\n\n    function pauseSIP(uint id) public returns (bool) {\n        require(msg.sender == plans[id].srcAccount, \"Not authorized to change SIP status\");\n\n        require(plans[id].status == Status.active, \"Plan not active\");\n\n        //Pause the status of SIP\n        plans[id].status = Status.paused;\n    }\n\n/*\n*******************************************************************************\n* Kyber Network contract functions\n/******************************************************************************\n*/\n    function setKyberNetworkProxyContract(address newContractAddress) public returns (bool) {\n\n        require(msg.sender == owner, \"Not authorized to call this function\");\n        address oldAddress = address(kyberNetworkProxyContract);\n        kyberNetworkProxyContract = KyberNetworkProxyInterface(newContractAddress);\n        emit updateKyberNetworkProxyContract(oldAddress, newContractAddress);\n\n    }\n\n    function swapTokensUsingKyber(\n        address srcAccount,\n        ERC20 srcToken,\n        address destAccount,\n        ERC20 destToken,\n        uint srcQty,\n        uint maxDestAmount\n    ) public {\n\n        uint minConversionRate;\n        require(srcToken.transferFrom(\n            srcAccount,\n            address(this),\n            srcQty),\n            \"Transfer of token from user account failed\"\n        );\n\n        // Mitigate ERC20 Approve front-running attack, by initially setting allowance to 0\n        require(srcToken.approve(address(kyberNetworkProxyContract), 0), \"Error approving allowance\");\n        require(srcToken.approve(address(kyberNetworkProxyContract), srcQty), \"Error approving allowance\");\n\n        // Get the minimum conversion rate\n        (minConversionRate,) = kyberNetworkProxyContract.getExpectedRate(srcToken, destToken, srcQty);\n\n        // Swap the ERC20 token and send to destAddress\n        kyberNetworkProxyContract.trade(\n            srcToken,\n            srcQty,\n            destToken,\n            destAccount,\n            maxDestAmount,\n            minConversionRate,\n            owner\n        );\n\n        // Log the event\n        emit tokensSwapped(srcAccount, srcToken, destAccount, destToken, srcQty);\n    }\n\n/*\n*******************************************************************************\n* Aave contract functions\n/******************************************************************************\n*/\n    function setAaveLendingPool(address lendingPoolAddressProvider) public returns (bool) {\n        require(msg.sender == owner, \"Only Owner\");\n        aaveAddressProvider = ILendingPoolAddressesProvider(lendingPoolAddressProvider);\n        aaveLendingPool = ILendingPool(aaveAddressProvider.getLendingPool());\n    }\n\n    function getInterestBearingTokens(\n        address srcAccount,\n        address srcToken,\n        uint amount\n    ) public returns (bool) {\n\n        //Transfer amount of tokens from user wallet to this contract\n        require(ERC20(srcToken).transferFrom(\n            srcAccount,\n            address(this),\n            amount),\n            \"Transfer of token from user account failed\"\n        );\n\n        //Approve the lending pool core contract to spen user tokens\n        ERC20(srcToken).approve(aaveAddressProvider.getLendingPoolCore(), amount);\n        aaveLendingPool.deposit(srcToken, amount, aaveRef);\n\n    }\n\n}",
  "sourcePath": "/home/sudeep/projects/capitalETH/contracts/CapitalETH.sol",
  "compiler": {
    "name": "solc",
    "version": "0.6.7+commit.b8d736ae.Emscripten.clang"
  },
  "schemaVersion": "3.1.0",
  "updatedAt": "2020-05-10T00:11:08.378Z",
  "devdoc": {
    "methods": {}
  },
  "userdoc": {
    "methods": {}
  }
}